{"abi":[{"type":"constructor","inputs":[],"stateMutability":"nonpayable"},{"type":"function","name":"depositNFT","inputs":[{"name":"nftContract","type":"address","internalType":"address"},{"name":"tokenId","type":"uint256","internalType":"uint256"}],"outputs":[{"name":"escrowId","type":"bytes32","internalType":"bytes32"}],"stateMutability":"nonpayable"},{"type":"function","name":"escrows","inputs":[{"name":"","type":"bytes32","internalType":"bytes32"}],"outputs":[{"name":"owner","type":"address","internalType":"address"},{"name":"nftContract","type":"address","internalType":"address"},{"name":"tokenId","type":"uint256","internalType":"uint256"},{"name":"isLocked","type":"bool","internalType":"bool"}],"stateMutability":"view"},{"type":"function","name":"getEscrow","inputs":[{"name":"escrowId","type":"bytes32","internalType":"bytes32"}],"outputs":[{"name":"","type":"tuple","internalType":"struct NFTEscrow.EscrowedNFT","components":[{"name":"owner","type":"address","internalType":"address"},{"name":"nftContract","type":"address","internalType":"address"},{"name":"tokenId","type":"uint256","internalType":"uint256"},{"name":"isLocked","type":"bool","internalType":"bool"}]}],"stateMutability":"view"},{"type":"function","name":"liquidateNFT","inputs":[{"name":"escrowId","type":"bytes32","internalType":"bytes32"},{"name":"to","type":"address","internalType":"address"}],"outputs":[],"stateMutability":"nonpayable"},{"type":"function","name":"loanManager","inputs":[],"outputs":[{"name":"","type":"address","internalType":"address"}],"stateMutability":"view"},{"type":"function","name":"lockNFT","inputs":[{"name":"escrowId","type":"bytes32","internalType":"bytes32"}],"outputs":[],"stateMutability":"nonpayable"},{"type":"function","name":"onERC721Received","inputs":[{"name":"","type":"address","internalType":"address"},{"name":"","type":"address","internalType":"address"},{"name":"","type":"uint256","internalType":"uint256"},{"name":"","type":"bytes","internalType":"bytes"}],"outputs":[{"name":"","type":"bytes4","internalType":"bytes4"}],"stateMutability":"nonpayable"},{"type":"function","name":"owner","inputs":[],"outputs":[{"name":"","type":"address","internalType":"address"}],"stateMutability":"view"},{"type":"function","name":"releaseNFT","inputs":[{"name":"escrowId","type":"bytes32","internalType":"bytes32"},{"name":"to","type":"address","internalType":"address"}],"outputs":[],"stateMutability":"nonpayable"},{"type":"function","name":"renounceOwnership","inputs":[],"outputs":[],"stateMutability":"nonpayable"},{"type":"function","name":"setLoanManager","inputs":[{"name":"_loanManager","type":"address","internalType":"address"}],"outputs":[],"stateMutability":"nonpayable"},{"type":"function","name":"transferOwnership","inputs":[{"name":"newOwner","type":"address","internalType":"address"}],"outputs":[],"stateMutability":"nonpayable"},{"type":"event","name":"NFTDeposited","inputs":[{"name":"escrowId","type":"bytes32","indexed":true,"internalType":"bytes32"},{"name":"owner","type":"address","indexed":true,"internalType":"address"},{"name":"nftContract","type":"address","indexed":false,"internalType":"address"},{"name":"tokenId","type":"uint256","indexed":false,"internalType":"uint256"}],"anonymous":false},{"type":"event","name":"NFTLiquidated","inputs":[{"name":"escrowId","type":"bytes32","indexed":true,"internalType":"bytes32"},{"name":"to","type":"address","indexed":true,"internalType":"address"}],"anonymous":false},{"type":"event","name":"NFTReleased","inputs":[{"name":"escrowId","type":"bytes32","indexed":true,"internalType":"bytes32"},{"name":"to","type":"address","indexed":true,"internalType":"address"}],"anonymous":false},{"type":"event","name":"OwnershipTransferred","inputs":[{"name":"previousOwner","type":"address","indexed":true,"internalType":"address"},{"name":"newOwner","type":"address","indexed":true,"internalType":"address"}],"anonymous":false},{"type":"error","name":"OwnableInvalidOwner","inputs":[{"name":"owner","type":"address","internalType":"address"}]},{"type":"error","name":"OwnableUnauthorizedAccount","inputs":[{"name":"account","type":"address","internalType":"address"}]},{"type":"error","name":"ReentrancyGuardReentrantCall","inputs":[]}],"bytecode":{"object":"0x608060405234801562000010575f80fd5b50335f73ffffffffffffffffffffffffffffffffffffffff168173ffffffffffffffffffffffffffffffffffffffff160362000085575f6040517f1e4fbdf70000000000000000000000000000000000000000000000000000000081526004016200007c9190620001fb565b60405180910390fd5b6200009681620000c560201b60201c565b506001620000b9620000ad6200018660201b60201c565b620001af60201b60201c565b5f018190555062000216565b5f805f9054906101000a900473ffffffffffffffffffffffffffffffffffffffff169050815f806101000a81548173ffffffffffffffffffffffffffffffffffffffff021916908373ffffffffffffffffffffffffffffffffffffffff1602179055508173ffffffffffffffffffffffffffffffffffffffff168173ffffffffffffffffffffffffffffffffffffffff167f8be0079c531659141344cd1fd0a4f28419497f9722a3daafe3b4186f6b6457e060405160405180910390a35050565b5f7f9b779b17422d0df92223018b32b4d1fa46e071723d6817e2486d003becc55f005f1b905090565b5f819050919050565b5f73ffffffffffffffffffffffffffffffffffffffff82169050919050565b5f620001e382620001b8565b9050919050565b620001f581620001d7565b82525050565b5f602082019050620002105f830184620001ea565b92915050565b61180580620002245f395ff3fe608060405234801561000f575f80fd5b50600436106100b2575f3560e01c80639b5b9b181161006f5780639b5b9b1814610179578063b2c8abba146101a9578063b3ccbcfe146101c5578063d7fd2ee2146101e3578063f023b811146101ff578063f2fde38b1461022f576100b2565b8063150b7a02146100b65780632d83549c146100e65780635772ae7014610119578063715018a614610135578063738449401461013f5780638da5cb5b1461015b575b5f80fd5b6100d060048036038101906100cb919061124c565b61024b565b6040516100dd9190611306565b60405180910390f35b61010060048036038101906100fb9190611352565b61025e565b60405161011094939291906113b5565b60405180910390f35b610133600480360381019061012e91906113f8565b6102d4565b005b61013d61031f565b005b61015960048036038101906101549190611423565b610332565b005b610163610633565b6040516101709190611461565b60405180910390f35b610193600480360381019061018e919061147a565b61065a565b6040516101a091906114c7565b60405180910390f35b6101c360048036038101906101be9190611423565b610871565b005b6101cd610b07565b6040516101da9190611461565b60405180910390f35b6101fd60048036038101906101f89190611352565b610b2c565b005b61021960048036038101906102149190611352565b610c8a565b6040516102269190611560565b60405180910390f35b610249600480360381019061024491906113f8565b610d82565b005b5f63150b7a0260e01b9050949350505050565b6002602052805f5260405f205f91509050805f015f9054906101000a900473ffffffffffffffffffffffffffffffffffffffff1690806001015f9054906101000a900473ffffffffffffffffffffffffffffffffffffffff1690806002015490806003015f9054906101000a900460ff16905084565b6102dc610e06565b8060015f6101000a81548173ffffffffffffffffffffffffffffffffffffffff021916908373ffffffffffffffffffffffffffffffffffffffff16021790555050565b610327610e06565b6103305f610e8d565b565b60015f9054906101000a900473ffffffffffffffffffffffffffffffffffffffff1673ffffffffffffffffffffffffffffffffffffffff163373ffffffffffffffffffffffffffffffffffffffff16146103c1576040517f08c379a00000000000000000000000000000000000000000000000000000000081526004016103b8906115d3565b60405180910390fd5b6103c9610f4e565b5f60025f8481526020019081526020015f2090505f73ffffffffffffffffffffffffffffffffffffffff16815f015f9054906101000a900473ffffffffffffffffffffffffffffffffffffffff1673ffffffffffffffffffffffffffffffffffffffff160361046d576040517f08c379a00000000000000000000000000000000000000000000000000000000081526004016104649061163b565b60405180910390fd5b806003015f9054906101000a900460ff166104bd576040517f08c379a00000000000000000000000000000000000000000000000000000000081526004016104b4906116a3565b60405180910390fd5b5f816003015f6101000a81548160ff021916908315150217905550806001015f9054906101000a900473ffffffffffffffffffffffffffffffffffffffff1673ffffffffffffffffffffffffffffffffffffffff166342842e0e308484600201546040518463ffffffff1660e01b815260040161053c939291906116c1565b5f604051808303815f87803b158015610553575f80fd5b505af1158015610565573d5f803e3d5ffd5b5050505060025f8481526020019081526020015f205f8082015f6101000a81549073ffffffffffffffffffffffffffffffffffffffff0219169055600182015f6101000a81549073ffffffffffffffffffffffffffffffffffffffff0219169055600282015f9055600382015f6101000a81549060ff021916905550508173ffffffffffffffffffffffffffffffffffffffff16837fdedb7d8e680abf0a7723f173b0e10a6d6b3aac00569b57ba4cc2d9bc6cc6caa160405160405180910390a35061062f610f70565b5050565b5f805f9054906101000a900473ffffffffffffffffffffffffffffffffffffffff16905090565b5f610663610f4e565b3383834260405160200161067a949392919061175b565b6040516020818303038152906040528051906020012090508273ffffffffffffffffffffffffffffffffffffffff166342842e0e3330856040518463ffffffff1660e01b81526004016106cf939291906116c1565b5f604051808303815f87803b1580156106e6575f80fd5b505af11580156106f8573d5f803e3d5ffd5b5050505060405180608001604052803373ffffffffffffffffffffffffffffffffffffffff1681526020018473ffffffffffffffffffffffffffffffffffffffff1681526020018381526020015f151581525060025f8381526020019081526020015f205f820151815f015f6101000a81548173ffffffffffffffffffffffffffffffffffffffff021916908373ffffffffffffffffffffffffffffffffffffffff1602179055506020820151816001015f6101000a81548173ffffffffffffffffffffffffffffffffffffffff021916908373ffffffffffffffffffffffffffffffffffffffff160217905550604082015181600201556060820151816003015f6101000a81548160ff0219169083151502179055509050503373ffffffffffffffffffffffffffffffffffffffff16817f3a2446e77599b001d6e7f8d965d64c3ec2c5222ba2a3f1cba8ad884dd7f8349d858560405161085b9291906117a8565b60405180910390a361086b610f70565b92915050565b60015f9054906101000a900473ffffffffffffffffffffffffffffffffffffffff1673ffffffffffffffffffffffffffffffffffffffff163373ffffffffffffffffffffffffffffffffffffffff1614610900576040517f08c379a00000000000000000000000000000000000000000000000000000000081526004016108f7906115d3565b60405180910390fd5b610908610f4e565b5f60025f8481526020019081526020015f2090505f73ffffffffffffffffffffffffffffffffffffffff16815f015f9054906101000a900473ffffffffffffffffffffffffffffffffffffffff1673ffffffffffffffffffffffffffffffffffffffff16036109ac576040517f08c379a00000000000000000000000000000000000000000000000000000000081526004016109a39061163b565b60405180910390fd5b806001015f9054906101000a900473ffffffffffffffffffffffffffffffffffffffff1673ffffffffffffffffffffffffffffffffffffffff166342842e0e308484600201546040518463ffffffff1660e01b8152600401610a10939291906116c1565b5f604051808303815f87803b158015610a27575f80fd5b505af1158015610a39573d5f803e3d5ffd5b5050505060025f8481526020019081526020015f205f8082015f6101000a81549073ffffffffffffffffffffffffffffffffffffffff0219169055600182015f6101000a81549073ffffffffffffffffffffffffffffffffffffffff0219169055600282015f9055600382015f6101000a81549060ff021916905550508173ffffffffffffffffffffffffffffffffffffffff16837fae21fb0113389968a74679e17f95a06f6e274302e6d8b2c9b2daea71ed3db50f60405160405180910390a350610b03610f70565b5050565b60015f9054906101000a900473ffffffffffffffffffffffffffffffffffffffff1681565b60015f9054906101000a900473ffffffffffffffffffffffffffffffffffffffff1673ffffffffffffffffffffffffffffffffffffffff163373ffffffffffffffffffffffffffffffffffffffff1614610bbb576040517f08c379a0000000000000000000000000000000000000000000000000000000008152600401610bb2906115d3565b60405180910390fd5b5f73ffffffffffffffffffffffffffffffffffffffff1660025f8381526020019081526020015f205f015f9054906101000a900473ffffffffffffffffffffffffffffffffffffffff1673ffffffffffffffffffffffffffffffffffffffff1603610c5b576040517f08c379a0000000000000000000000000000000000000000000000000000000008152600401610c529061163b565b60405180910390fd5b600160025f8381526020019081526020015f206003015f6101000a81548160ff02191690831515021790555050565b610c92611020565b60025f8381526020019081526020015f206040518060800160405290815f82015f9054906101000a900473ffffffffffffffffffffffffffffffffffffffff1673ffffffffffffffffffffffffffffffffffffffff1673ffffffffffffffffffffffffffffffffffffffff168152602001600182015f9054906101000a900473ffffffffffffffffffffffffffffffffffffffff1673ffffffffffffffffffffffffffffffffffffffff1673ffffffffffffffffffffffffffffffffffffffff16815260200160028201548152602001600382015f9054906101000a900460ff1615151515815250509050919050565b610d8a610e06565b5f73ffffffffffffffffffffffffffffffffffffffff168173ffffffffffffffffffffffffffffffffffffffff1603610dfa575f6040517f1e4fbdf7000000000000000000000000000000000000000000000000000000008152600401610df19190611461565b60405180910390fd5b610e0381610e8d565b50565b610e0e610f8a565b73ffffffffffffffffffffffffffffffffffffffff16610e2c610633565b73ffffffffffffffffffffffffffffffffffffffff1614610e8b57610e4f610f8a565b6040517f118cdaa7000000000000000000000000000000000000000000000000000000008152600401610e829190611461565b60405180910390fd5b565b5f805f9054906101000a900473ffffffffffffffffffffffffffffffffffffffff169050815f806101000a81548173ffffffffffffffffffffffffffffffffffffffff021916908373ffffffffffffffffffffffffffffffffffffffff1602179055508173ffffffffffffffffffffffffffffffffffffffff168173ffffffffffffffffffffffffffffffffffffffff167f8be0079c531659141344cd1fd0a4f28419497f9722a3daafe3b4186f6b6457e060405160405180910390a35050565b610f56610f91565b6002610f68610f63610fd2565b610ffb565b5f0181905550565b6001610f82610f7d610fd2565b610ffb565b5f0181905550565b5f33905090565b610f99611004565b15610fd0576040517f3ee5aeb500000000000000000000000000000000000000000000000000000000815260040160405180910390fd5b565b5f7f9b779b17422d0df92223018b32b4d1fa46e071723d6817e2486d003becc55f005f1b905090565b5f819050919050565b5f6002611017611012610fd2565b610ffb565b5f015414905090565b60405180608001604052805f73ffffffffffffffffffffffffffffffffffffffff1681526020015f73ffffffffffffffffffffffffffffffffffffffff1681526020015f81526020015f151581525090565b5f604051905090565b5f80fd5b5f80fd5b5f73ffffffffffffffffffffffffffffffffffffffff82169050919050565b5f6110ac82611083565b9050919050565b6110bc816110a2565b81146110c6575f80fd5b50565b5f813590506110d7816110b3565b92915050565b5f819050919050565b6110ef816110dd565b81146110f9575f80fd5b50565b5f8135905061110a816110e6565b92915050565b5f80fd5b5f80fd5b5f601f19601f8301169050919050565b7f4e487b71000000000000000000000000000000000000000000000000000000005f52604160045260245ffd5b61115e82611118565b810181811067ffffffffffffffff8211171561117d5761117c611128565b5b80604052505050565b5f61118f611072565b905061119b8282611155565b919050565b5f67ffffffffffffffff8211156111ba576111b9611128565b5b6111c382611118565b9050602081019050919050565b828183375f83830152505050565b5f6111f06111eb846111a0565b611186565b90508281526020810184848401111561120c5761120b611114565b5b6112178482856111d0565b509392505050565b5f82601f83011261123357611232611110565b5b81356112438482602086016111de565b91505092915050565b5f805f80608085870312156112645761126361107b565b5b5f611271878288016110c9565b9450506020611282878288016110c9565b9350506040611293878288016110fc565b925050606085013567ffffffffffffffff8111156112b4576112b361107f565b5b6112c08782880161121f565b91505092959194509250565b5f7fffffffff0000000000000000000000000000000000000000000000000000000082169050919050565b611300816112cc565b82525050565b5f6020820190506113195f8301846112f7565b92915050565b5f819050919050565b6113318161131f565b811461133b575f80fd5b50565b5f8135905061134c81611328565b92915050565b5f602082840312156113675761136661107b565b5b5f6113748482850161133e565b91505092915050565b611386816110a2565b82525050565b611395816110dd565b82525050565b5f8115159050919050565b6113af8161139b565b82525050565b5f6080820190506113c85f83018761137d565b6113d5602083018661137d565b6113e2604083018561138c565b6113ef60608301846113a6565b95945050505050565b5f6020828403121561140d5761140c61107b565b5b5f61141a848285016110c9565b91505092915050565b5f80604083850312156114395761143861107b565b5b5f6114468582860161133e565b9250506020611457858286016110c9565b9150509250929050565b5f6020820190506114745f83018461137d565b92915050565b5f80604083850312156114905761148f61107b565b5b5f61149d858286016110c9565b92505060206114ae858286016110fc565b9150509250929050565b6114c18161131f565b82525050565b5f6020820190506114da5f8301846114b8565b92915050565b6114e9816110a2565b82525050565b6114f8816110dd565b82525050565b6115078161139b565b82525050565b608082015f8201516115215f8501826114e0565b50602082015161153460208501826114e0565b50604082015161154760408501826114ef565b50606082015161155a60608501826114fe565b50505050565b5f6080820190506115735f83018461150d565b92915050565b5f82825260208201905092915050565b7f4f6e6c79204c6f616e4d616e61676572000000000000000000000000000000005f82015250565b5f6115bd601083611579565b91506115c882611589565b602082019050919050565b5f6020820190508181035f8301526115ea816115b1565b9050919050565b7f457363726f77206e6f7420666f756e64000000000000000000000000000000005f82015250565b5f611625601083611579565b9150611630826115f1565b602082019050919050565b5f6020820190508181035f83015261165281611619565b9050919050565b7f4e4654206e6f74206c6f636b65640000000000000000000000000000000000005f82015250565b5f61168d600e83611579565b915061169882611659565b602082019050919050565b5f6020820190508181035f8301526116ba81611681565b9050919050565b5f6060820190506116d45f83018661137d565b6116e1602083018561137d565b6116ee604083018461138c565b949350505050565b5f8160601b9050919050565b5f61170c826116f6565b9050919050565b5f61171d82611702565b9050919050565b611735611730826110a2565b611713565b82525050565b5f819050919050565b611755611750826110dd565b61173b565b82525050565b5f6117668287611724565b6014820191506117768286611724565b6014820191506117868285611744565b6020820191506117968284611744565b60208201915081905095945050505050565b5f6040820190506117bb5f83018561137d565b6117c8602083018461138c565b939250505056fea26469706673582212201066c822d5aa7b1b524319481dbf48b7170922d7db352f414b04c34bb4a77be364736f6c63430008140033","linkReferences":{}},"methodIdentifiers":{"depositNFT(address,uint256)":"9b5b9b18","escrows(bytes32)":"2d83549c","getEscrow(bytes32)":"f023b811","liquidateNFT(bytes32,address)":"b2c8abba","loanManager()":"b3ccbcfe","lockNFT(bytes32)":"d7fd2ee2","onERC721Received(address,address,uint256,bytes)":"150b7a02","owner()":"8da5cb5b","releaseNFT(bytes32,address)":"73844940","renounceOwnership()":"715018a6","setLoanManager(address)":"5772ae70","transferOwnership(address)":"f2fde38b"},"id":27}