{"abi":[{"type":"constructor","inputs":[],"stateMutability":"nonpayable"},{"type":"function","name":"depositNFT","inputs":[{"name":"nftContract","type":"address","internalType":"address"},{"name":"tokenId","type":"uint256","internalType":"uint256"}],"outputs":[{"name":"escrowId","type":"bytes32","internalType":"bytes32"}],"stateMutability":"nonpayable"},{"type":"function","name":"escrows","inputs":[{"name":"","type":"bytes32","internalType":"bytes32"}],"outputs":[{"name":"owner","type":"address","internalType":"address"},{"name":"nftContract","type":"address","internalType":"address"},{"name":"tokenId","type":"uint256","internalType":"uint256"},{"name":"isLocked","type":"bool","internalType":"bool"}],"stateMutability":"view"},{"type":"function","name":"getEscrow","inputs":[{"name":"escrowId","type":"bytes32","internalType":"bytes32"}],"outputs":[{"name":"","type":"tuple","internalType":"struct NFTEscrow.EscrowedNFT","components":[{"name":"owner","type":"address","internalType":"address"},{"name":"nftContract","type":"address","internalType":"address"},{"name":"tokenId","type":"uint256","internalType":"uint256"},{"name":"isLocked","type":"bool","internalType":"bool"}]}],"stateMutability":"view"},{"type":"function","name":"liquidateNFT","inputs":[{"name":"escrowId","type":"bytes32","internalType":"bytes32"},{"name":"liquidator","type":"address","internalType":"address"}],"outputs":[],"stateMutability":"nonpayable"},{"type":"function","name":"loanManager","inputs":[],"outputs":[{"name":"","type":"address","internalType":"address"}],"stateMutability":"view"},{"type":"function","name":"lockNFT","inputs":[{"name":"escrowId","type":"bytes32","internalType":"bytes32"}],"outputs":[],"stateMutability":"nonpayable"},{"type":"function","name":"onERC721Received","inputs":[{"name":"","type":"address","internalType":"address"},{"name":"","type":"address","internalType":"address"},{"name":"","type":"uint256","internalType":"uint256"},{"name":"","type":"bytes","internalType":"bytes"}],"outputs":[{"name":"","type":"bytes4","internalType":"bytes4"}],"stateMutability":"nonpayable"},{"type":"function","name":"owner","inputs":[],"outputs":[{"name":"","type":"address","internalType":"address"}],"stateMutability":"view"},{"type":"function","name":"releaseNFT","inputs":[{"name":"escrowId","type":"bytes32","internalType":"bytes32"},{"name":"to","type":"address","internalType":"address"}],"outputs":[],"stateMutability":"nonpayable"},{"type":"function","name":"renounceOwnership","inputs":[],"outputs":[],"stateMutability":"nonpayable"},{"type":"function","name":"setLoanManager","inputs":[{"name":"_loanManager","type":"address","internalType":"address"}],"outputs":[],"stateMutability":"nonpayable"},{"type":"function","name":"transferOwnership","inputs":[{"name":"newOwner","type":"address","internalType":"address"}],"outputs":[],"stateMutability":"nonpayable"},{"type":"event","name":"NFTDeposited","inputs":[{"name":"escrowId","type":"bytes32","indexed":true,"internalType":"bytes32"},{"name":"owner","type":"address","indexed":true,"internalType":"address"},{"name":"nftContract","type":"address","indexed":false,"internalType":"address"},{"name":"tokenId","type":"uint256","indexed":false,"internalType":"uint256"}],"anonymous":false},{"type":"event","name":"NFTLiquidated","inputs":[{"name":"escrowId","type":"bytes32","indexed":true,"internalType":"bytes32"},{"name":"liquidator","type":"address","indexed":true,"internalType":"address"}],"anonymous":false},{"type":"event","name":"NFTReleased","inputs":[{"name":"escrowId","type":"bytes32","indexed":true,"internalType":"bytes32"},{"name":"to","type":"address","indexed":true,"internalType":"address"}],"anonymous":false},{"type":"event","name":"OwnershipTransferred","inputs":[{"name":"previousOwner","type":"address","indexed":true,"internalType":"address"},{"name":"newOwner","type":"address","indexed":true,"internalType":"address"}],"anonymous":false},{"type":"error","name":"OwnableInvalidOwner","inputs":[{"name":"owner","type":"address","internalType":"address"}]},{"type":"error","name":"OwnableUnauthorizedAccount","inputs":[{"name":"account","type":"address","internalType":"address"}]},{"type":"error","name":"ReentrancyGuardReentrantCall","inputs":[]}],"bytecode":{"object":"0x608060405234801561000f575f80fd5b50338061003557604051631e4fbdf760e01b81525f600482015260240160405180910390fd5b61003e81610068565b5060017f9b779b17422d0df92223018b32b4d1fa46e071723d6817e2486d003becc55f00556100b7565b5f80546001600160a01b038381166001600160a01b0319831681178455604051919092169283917f8be0079c531659141344cd1fd0a4f28419497f9722a3daafe3b4186f6b6457e09190a35050565b610b7e806100c45f395ff3fe608060405234801561000f575f80fd5b50600436106100b1575f3560e01c80639b5b9b181161006e5780639b5b9b18146101b8578063b2c8abba146101d9578063b3ccbcfe146101ec578063d7fd2ee2146101ff578063f023b81114610212578063f2fde38b146102d8575f80fd5b8063150b7a02146100b55780632d83549c146100f15780635772ae7014610164578063715018a61461017957806373844940146101815780638da5cb5b14610194575b5f80fd5b6100d36100c3366004610976565b630a85bd0160e11b949350505050565b6040516001600160e01b031990911681526020015b60405180910390f35b6101376100ff366004610a4b565b600260208190525f918252604090912080546001820154928201546003909201546001600160a01b0391821693909116919060ff1684565b604080516001600160a01b03958616815294909316602085015291830152151560608201526080016100e8565b610177610172366004610a62565b6102eb565b005b610177610315565b61017761018f366004610a82565b610328565b5f546001600160a01b03165b6040516001600160a01b0390911681526020016100e8565b6101cb6101c6366004610aac565b6104e0565b6040519081526020016100e8565b6101776101e7366004610a82565b610671565b6001546101a0906001600160a01b031681565b61017761020d366004610a4b565b6107cb565b610295610220366004610a4b565b604080516080810182525f808252602082018190529181018290526060810191909152505f90815260026020818152604092839020835160808101855281546001600160a01b0390811682526001830154169281019290925291820154928101929092526003015460ff161515606082015290565b6040516100e8919081516001600160a01b039081168252602080840151909116908201526040808301519082015260609182015115159181019190915260800190565b6101776102e6366004610a62565b610845565b6102f3610882565b600180546001600160a01b0319166001600160a01b0392909216919091179055565b61031d610882565b6103265f6108ae565b565b6001546001600160a01b0316331461035b5760405162461bcd60e51b815260040161035290610ad4565b60405180910390fd5b6103636108fd565b5f82815260026020526040902080546001600160a01b03166103975760405162461bcd60e51b815260040161035290610afe565b600381015460ff166103dc5760405162461bcd60e51b815260206004820152600e60248201526d139195081b9bdd081b1bd8dad95960921b6044820152606401610352565b60038101805460ff1916905560018101546002820154604051632142170760e11b81523060048201526001600160a01b03858116602483015260448201929092529116906342842e0e906064015f604051808303815f87803b158015610440575f80fd5b505af1158015610452573d5f803e3d5ffd5b5050505f84815260026020819052604080832080546001600160a01b0319908116825560018201805490911690559182018390556003909101805460ff19169055516001600160a01b038516925085917fdedb7d8e680abf0a7723f173b0e10a6d6b3aac00569b57ba4cc2d9bc6cc6caa191a3506104dc60015f80516020610b2983398151915255565b5050565b5f6104e96108fd565b6040516bffffffffffffffffffffffff1933606090811b8216602084015285901b1660348201526048810183905242606882015260880160408051808303601f19018152908290528051602090910120632142170760e11b82523360048301523060248301526044820184905291506001600160a01b038416906342842e0e906064015f604051808303815f87803b158015610583575f80fd5b505af1158015610595573d5f803e3d5ffd5b505060408051608081018252338082526001600160a01b0388811660208085018281528587018b81525f606088018181528c82526002808652918a9020985189546001600160a01b0319908116918916919091178a55935160018a018054909516971696909617909255519086015591516003909401805460ff1916941515949094179093558351928352820187905293508492507f3a2446e77599b001d6e7f8d965d64c3ec2c5222ba2a3f1cba8ad884dd7f8349d910160405180910390a361066b60015f80516020610b2983398151915255565b92915050565b6001546001600160a01b0316331461069b5760405162461bcd60e51b815260040161035290610ad4565b6106a36108fd565b5f82815260026020526040902080546001600160a01b03166106d75760405162461bcd60e51b815260040161035290610afe565b60018101546002820154604051632142170760e11b81523060048201526001600160a01b03858116602483015260448201929092529116906342842e0e906064015f604051808303815f87803b15801561072f575f80fd5b505af1158015610741573d5f803e3d5ffd5b5050505f84815260026020819052604080832080546001600160a01b0319908116825560018201805490911690559182018390556003909101805460ff19169055516001600160a01b038516925085917fae21fb0113389968a74679e17f95a06f6e274302e6d8b2c9b2daea71ed3db50f91a3506104dc60015f80516020610b2983398151915255565b6001546001600160a01b031633146107f55760405162461bcd60e51b815260040161035290610ad4565b5f818152600260205260409020546001600160a01b03166108285760405162461bcd60e51b815260040161035290610afe565b5f908152600260205260409020600301805460ff19166001179055565b61084d610882565b6001600160a01b03811661087657604051631e4fbdf760e01b81525f6004820152602401610352565b61087f816108ae565b50565b5f546001600160a01b031633146103265760405163118cdaa760e01b8152336004820152602401610352565b5f80546001600160a01b038381166001600160a01b0319831681178455604051919092169283917f8be0079c531659141344cd1fd0a4f28419497f9722a3daafe3b4186f6b6457e09190a35050565b610905610918565b60025f80516020610b2983398151915255565b5f80516020610b298339815191525460020361032657604051633ee5aeb560e01b815260040160405180910390fd5b80356001600160a01b038116811461095d575f80fd5b919050565b634e487b7160e01b5f52604160045260245ffd5b5f805f8060808587031215610989575f80fd5b61099285610947565b93506109a060208601610947565b925060408501359150606085013567ffffffffffffffff808211156109c3575f80fd5b818701915087601f8301126109d6575f80fd5b8135818111156109e8576109e8610962565b604051601f8201601f19908116603f01168101908382118183101715610a1057610a10610962565b816040528281528a6020848701011115610a28575f80fd5b826020860160208301375f60208483010152809550505050505092959194509250565b5f60208284031215610a5b575f80fd5b5035919050565b5f60208284031215610a72575f80fd5b610a7b82610947565b9392505050565b5f8060408385031215610a93575f80fd5b82359150610aa360208401610947565b90509250929050565b5f8060408385031215610abd575f80fd5b610ac683610947565b946020939093013593505050565b60208082526010908201526f27b7363c902637b0b726b0b730b3b2b960811b604082015260600190565b60208082526010908201526f115cd8dc9bddc81b9bdd08199bdd5b9960821b60408201526060019056fe9b779b17422d0df92223018b32b4d1fa46e071723d6817e2486d003becc55f00a2646970667358221220f9867e477d2a588a1735b8f3e788972274eac24b05d74501c3f4e102f66129f464736f6c63430008180033","linkReferences":{}},"methodIdentifiers":{"depositNFT(address,uint256)":"9b5b9b18","escrows(bytes32)":"2d83549c","getEscrow(bytes32)":"f023b811","liquidateNFT(bytes32,address)":"b2c8abba","loanManager()":"b3ccbcfe","lockNFT(bytes32)":"d7fd2ee2","onERC721Received(address,address,uint256,bytes)":"150b7a02","owner()":"8da5cb5b","releaseNFT(bytes32,address)":"73844940","renounceOwnership()":"715018a6","setLoanManager(address)":"5772ae70","transferOwnership(address)":"f2fde38b"},"id":44}