{"abi":[{"type":"constructor","inputs":[{"name":"_nftEscrow","type":"address","internalType":"address"}],"stateMutability":"nonpayable"},{"type":"function","name":"AUCTION_DURATION","inputs":[],"outputs":[{"name":"","type":"uint256","internalType":"uint256"}],"stateMutability":"view"},{"type":"function","name":"auctionCount","inputs":[],"outputs":[{"name":"","type":"uint256","internalType":"uint256"}],"stateMutability":"view"},{"type":"function","name":"auctions","inputs":[{"name":"","type":"uint256","internalType":"uint256"}],"outputs":[{"name":"loanId","type":"uint256","internalType":"uint256"},{"name":"escrowId","type":"bytes32","internalType":"bytes32"},{"name":"lender","type":"address","internalType":"address"},{"name":"minBid","type":"uint256","internalType":"uint256"},{"name":"highestBid","type":"uint256","internalType":"uint256"},{"name":"highestBidder","type":"address","internalType":"address"},{"name":"endTime","type":"uint256","internalType":"uint256"},{"name":"settled","type":"bool","internalType":"bool"}],"stateMutability":"view"},{"type":"function","name":"getAuction","inputs":[{"name":"auctionId","type":"uint256","internalType":"uint256"}],"outputs":[{"name":"","type":"tuple","internalType":"struct LiquidationAuction.Auction","components":[{"name":"loanId","type":"uint256","internalType":"uint256"},{"name":"escrowId","type":"bytes32","internalType":"bytes32"},{"name":"lender","type":"address","internalType":"address"},{"name":"minBid","type":"uint256","internalType":"uint256"},{"name":"highestBid","type":"uint256","internalType":"uint256"},{"name":"highestBidder","type":"address","internalType":"address"},{"name":"endTime","type":"uint256","internalType":"uint256"},{"name":"settled","type":"bool","internalType":"bool"}]}],"stateMutability":"view"},{"type":"function","name":"loanManager","inputs":[],"outputs":[{"name":"","type":"address","internalType":"address"}],"stateMutability":"view"},{"type":"function","name":"nftEscrow","inputs":[],"outputs":[{"name":"","type":"address","internalType":"contract NFTEscrow"}],"stateMutability":"view"},{"type":"function","name":"owner","inputs":[],"outputs":[{"name":"","type":"address","internalType":"address"}],"stateMutability":"view"},{"type":"function","name":"pendingReturns","inputs":[{"name":"","type":"uint256","internalType":"uint256"},{"name":"","type":"address","internalType":"address"}],"outputs":[{"name":"","type":"uint256","internalType":"uint256"}],"stateMutability":"view"},{"type":"function","name":"placeBid","inputs":[{"name":"auctionId","type":"uint256","internalType":"uint256"}],"outputs":[],"stateMutability":"payable"},{"type":"function","name":"renounceOwnership","inputs":[],"outputs":[],"stateMutability":"nonpayable"},{"type":"function","name":"setLoanManager","inputs":[{"name":"_loanManager","type":"address","internalType":"address"}],"outputs":[],"stateMutability":"nonpayable"},{"type":"function","name":"settleAuction","inputs":[{"name":"auctionId","type":"uint256","internalType":"uint256"}],"outputs":[],"stateMutability":"nonpayable"},{"type":"function","name":"startAuction","inputs":[{"name":"loanId","type":"uint256","internalType":"uint256"},{"name":"escrowId","type":"bytes32","internalType":"bytes32"},{"name":"lender","type":"address","internalType":"address"},{"name":"minBid","type":"uint256","internalType":"uint256"}],"outputs":[{"name":"auctionId","type":"uint256","internalType":"uint256"}],"stateMutability":"nonpayable"},{"type":"function","name":"transferOwnership","inputs":[{"name":"newOwner","type":"address","internalType":"address"}],"outputs":[],"stateMutability":"nonpayable"},{"type":"function","name":"withdrawRefund","inputs":[{"name":"auctionId","type":"uint256","internalType":"uint256"}],"outputs":[],"stateMutability":"nonpayable"},{"type":"event","name":"AuctionSettled","inputs":[{"name":"auctionId","type":"uint256","indexed":true,"internalType":"uint256"},{"name":"winner","type":"address","indexed":false,"internalType":"address"},{"name":"amount","type":"uint256","indexed":false,"internalType":"uint256"}],"anonymous":false},{"type":"event","name":"AuctionStarted","inputs":[{"name":"auctionId","type":"uint256","indexed":true,"internalType":"uint256"},{"name":"loanId","type":"uint256","indexed":false,"internalType":"uint256"},{"name":"minBid","type":"uint256","indexed":false,"internalType":"uint256"},{"name":"endTime","type":"uint256","indexed":false,"internalType":"uint256"}],"anonymous":false},{"type":"event","name":"BidPlaced","inputs":[{"name":"auctionId","type":"uint256","indexed":true,"internalType":"uint256"},{"name":"bidder","type":"address","indexed":true,"internalType":"address"},{"name":"amount","type":"uint256","indexed":false,"internalType":"uint256"}],"anonymous":false},{"type":"event","name":"BidRefunded","inputs":[{"name":"auctionId","type":"uint256","indexed":true,"internalType":"uint256"},{"name":"bidder","type":"address","indexed":false,"internalType":"address"},{"name":"amount","type":"uint256","indexed":false,"internalType":"uint256"}],"anonymous":false},{"type":"event","name":"OwnershipTransferred","inputs":[{"name":"previousOwner","type":"address","indexed":true,"internalType":"address"},{"name":"newOwner","type":"address","indexed":true,"internalType":"address"}],"anonymous":false},{"type":"error","name":"OwnableInvalidOwner","inputs":[{"name":"owner","type":"address","internalType":"address"}]},{"type":"error","name":"OwnableUnauthorizedAccount","inputs":[{"name":"account","type":"address","internalType":"address"}]},{"type":"error","name":"ReentrancyGuardReentrantCall","inputs":[]}],"bytecode":{"object":"0x608060405234801561000f575f80fd5b50604051610f40380380610f4083398101604081905261002e916100f5565b338061005357604051631e4fbdf760e01b81525f600482015260240160405180910390fd5b61005c816100a6565b5060017f9b779b17422d0df92223018b32b4d1fa46e071723d6817e2486d003becc55f0055600180546001600160a01b0319166001600160a01b0392909216919091179055610122565b5f80546001600160a01b038381166001600160a01b0319831681178455604051919092169283917f8be0079c531659141344cd1fd0a4f28419497f9722a3daafe3b4186f6b6457e09190a35050565b5f60208284031215610105575f80fd5b81516001600160a01b038116811461011b575f80fd5b9392505050565b610e118061012f5f395ff3fe6080604052600436106100e4575f3560e01c80638da5cb5b11610087578063a271e52511610057578063a271e5251461041f578063b3ccbcfe14610435578063e770328e14610454578063f2fde38b14610473575f80fd5b80638da5cb5b1461039b5780638ddac1ef146103b75780639979ef45146103ed5780639d15349514610400575f80fd5b80635772ae70116100c25780635772ae70146101ea57806362b5bdf814610209578063715018a61461024057806378bd793514610254575f80fd5b80632ad71573146100e85780632e99361114610110578063571a26a014610131575b5f80fd5b3480156100f3575f80fd5b506100fd60035481565b6040519081526020015b60405180910390f35b34801561011b575f80fd5b5061012f61012a366004610cc0565b610492565b005b34801561013c575f80fd5b5061019c61014b366004610cc0565b600460208190525f918252604090912080546001820154600283015460038401549484015460058501546006860154600790960154949693956001600160a01b039384169592939091169160ff1688565b6040805198895260208901979097526001600160a01b03958616968801969096526060870193909352608086019190915290911660a084015260c0830152151560e082015261010001610107565b3480156101f5575f80fd5b5061012f610204366004610cf2565b61072c565b348015610214575f80fd5b50600154610228906001600160a01b031681565b6040516001600160a01b039091168152602001610107565b34801561024b575f80fd5b5061012f610756565b34801561025f575f80fd5b5061032b61026e366004610cc0565b60408051610100810182525f80825260208201819052918101829052606081018290526080810182905260a0810182905260c0810182905260e0810191909152505f908152600460208181526040928390208351610100810185528154815260018201549281019290925260028101546001600160a01b039081169483019490945260038101546060830152918201546080820152600582015490921660a0830152600681015460c08301526007015460ff16151560e082015290565b60405161010791905f610100820190508251825260208301516020830152604083015160018060a01b03808216604085015260608501516060850152608085015160808501528060a08601511660a0850152505060c083015160c083015260e0830151151560e083015292915050565b3480156103a6575f80fd5b505f546001600160a01b0316610228565b3480156103c2575f80fd5b506100fd6103d1366004610d12565b600560209081525f928352604080842090915290825290205481565b61012f6103fb366004610cc0565b610769565b34801561040b575f80fd5b5061012f61041a366004610cc0565b61094b565b34801561042a575f80fd5b506100fd6201518081565b348015610440575f80fd5b50600254610228906001600160a01b031681565b34801561045f575f80fd5b506100fd61046e366004610d3c565b610a29565b34801561047e575f80fd5b5061012f61048d366004610cf2565b610bc1565b61049a610bfb565b5f81815260046020526040902060068101544210156104f45760405162461bcd60e51b8152602060048201526011602482015270105d58dd1a5bdb881b9bdd08195b991959607a1b60448201526064015b60405180910390fd5b600781015460ff161561053b5760405162461bcd60e51b815260206004820152600f60248201526e105b1c9958591e481cd95d1d1b1959608a1b60448201526064016104eb565b60078101805460ff1916600117905560058101546001600160a01b03161561065b576001805490820154600583015460405163596455dd60e11b815260048101929092526001600160a01b0390811660248301529091169063b2c8abba906044015f604051808303815f87803b1580156105b3575f80fd5b505af11580156105c5573d5f803e3d5ffd5b505050600282015460048301546040516001600160a01b03909216925080156108fc02915f818181858888f19350505050158015610605573d5f803e3d5ffd5b5060058101546004820154604080516001600160a01b039093168352602083019190915283917fc9f72b276a388619c6d185d146697036241880c36654b1a3ffdad07c24038d99910160405180910390a2610712565b6001805490820154600283015460405163596455dd60e11b815260048101929092526001600160a01b0390811660248301529091169063b2c8abba906044015f604051808303815f87803b1580156106b1575f80fd5b505af11580156106c3573d5f803e3d5ffd5b505050506002810154604080516001600160a01b0390921682525f602083015283917fc9f72b276a388619c6d185d146697036241880c36654b1a3ffdad07c24038d9991015b60405180910390a25b5061072960015f80516020610dbc83398151915255565b50565b610734610c16565b600280546001600160a01b0319166001600160a01b0392909216919091179055565b61075e610c16565b6107675f610c42565b565b610771610bfb565b5f818152600460205260409020600681015442106107c15760405162461bcd60e51b815260206004820152600d60248201526c105d58dd1a5bdb88195b991959609a1b60448201526064016104eb565b600781015460ff16156108085760405162461bcd60e51b815260206004820152600f60248201526e105b1c9958591e481cd95d1d1b1959608a1b60448201526064016104eb565b806003015434101561084c5760405162461bcd60e51b815260206004820152600d60248201526c10995b1bddc81b5a5b88189a59609a1b60448201526064016104eb565b8060040154341161088d5760405162461bcd60e51b815260206004820152600b60248201526a42696420746f6f206c6f7760a81b60448201526064016104eb565b60058101546001600160a01b0316156108df5760048101545f838152600560208181526040808420928601546001600160a01b03168452919052812080549091906108d9908490610d8a565b90915550505b34600482018190556005820180546001600160a01b031916339081179091556040519182529083907f0e54eff26401bf69b81b26f60bd85ef47f5d85275c1d268d84f68d6897431c479060200160405180910390a35061072960015f80516020610dbc83398151915255565b610953610bfb565b5f818152600560209081526040808320338452909152902054806109ad5760405162461bcd60e51b8152602060048201526011602482015270139bdd1a1a5b99c81d1bc81c99599d5b99607a1b60448201526064016104eb565b5f82815260056020908152604080832033808552925280832083905551909183156108fc02918491818181858888f193505050501580156109f0573d5f803e3d5ffd5b50604080513381526020810183905283917fa59312996dc68b7f0224b341fed75d5afeb3bb20624107d37942d14f594281569101610709565b6002545f906001600160a01b03163314610a785760405162461bcd60e51b815260206004820152601060248201526f27b7363c902637b0b726b0b730b3b2b960811b60448201526064016104eb565b60038054905f610a8783610da3565b919050559050604051806101000160405280868152602001858152602001846001600160a01b031681526020018381526020015f81526020015f6001600160a01b031681526020016201518042610ade9190610d8a565b81525f6020918201819052838152600480835260409182902084518155848401516001820155848301516002820180546001600160a01b039283166001600160a01b031991821617909155606080880151600385015560808801519484019490945560a087015160058401805491909316911617905560c08501516006820181905560e0909501516007909101805491151560ff199092169190911790558151898152928301869052828201939093525183927fa832766a05f1bd0298b0268308621777cfe1e4eea23afe7c06beea79bc6ddd2d928290030190a2949350505050565b610bc9610c16565b6001600160a01b038116610bf257604051631e4fbdf760e01b81525f60048201526024016104eb565b61072981610c42565b610c03610c91565b60025f80516020610dbc83398151915255565b5f546001600160a01b031633146107675760405163118cdaa760e01b81523360048201526024016104eb565b5f80546001600160a01b038381166001600160a01b0319831681178455604051919092169283917f8be0079c531659141344cd1fd0a4f28419497f9722a3daafe3b4186f6b6457e09190a35050565b5f80516020610dbc8339815191525460020361076757604051633ee5aeb560e01b815260040160405180910390fd5b5f60208284031215610cd0575f80fd5b5035919050565b80356001600160a01b0381168114610ced575f80fd5b919050565b5f60208284031215610d02575f80fd5b610d0b82610cd7565b9392505050565b5f8060408385031215610d23575f80fd5b82359150610d3360208401610cd7565b90509250929050565b5f805f8060808587031215610d4f575f80fd5b8435935060208501359250610d6660408601610cd7565b9396929550929360600135925050565b634e487b7160e01b5f52601160045260245ffd5b80820180821115610d9d57610d9d610d76565b92915050565b5f60018201610db457610db4610d76565b506001019056fe9b779b17422d0df92223018b32b4d1fa46e071723d6817e2486d003becc55f00a264697066735822122057306736bb97d475afc77c6252462ad32e98d7f65f2500071534570bc48e54e764736f6c63430008180033","linkReferences":{}},"methodIdentifiers":{"AUCTION_DURATION()":"a271e525","auctionCount()":"2ad71573","auctions(uint256)":"571a26a0","getAuction(uint256)":"78bd7935","loanManager()":"b3ccbcfe","nftEscrow()":"62b5bdf8","owner()":"8da5cb5b","pendingReturns(uint256,address)":"8ddac1ef","placeBid(uint256)":"9979ef45","renounceOwnership()":"715018a6","setLoanManager(address)":"5772ae70","settleAuction(uint256)":"2e993611","startAuction(uint256,bytes32,address,uint256)":"e770328e","transferOwnership(address)":"f2fde38b","withdrawRefund(uint256)":"9d153495"},"id":42}