{"abi":[{"type":"constructor","inputs":[{"name":"_nftEscrow","type":"address","internalType":"address"}],"stateMutability":"nonpayable"},{"type":"function","name":"AUCTION_DURATION","inputs":[],"outputs":[{"name":"","type":"uint256","internalType":"uint256"}],"stateMutability":"view"},{"type":"function","name":"auctionCount","inputs":[],"outputs":[{"name":"","type":"uint256","internalType":"uint256"}],"stateMutability":"view"},{"type":"function","name":"auctions","inputs":[{"name":"","type":"uint256","internalType":"uint256"}],"outputs":[{"name":"loanId","type":"uint256","internalType":"uint256"},{"name":"escrowId","type":"bytes32","internalType":"bytes32"},{"name":"lender","type":"address","internalType":"address"},{"name":"minBid","type":"uint256","internalType":"uint256"},{"name":"highestBid","type":"uint256","internalType":"uint256"},{"name":"highestBidder","type":"address","internalType":"address"},{"name":"endTime","type":"uint256","internalType":"uint256"},{"name":"settled","type":"bool","internalType":"bool"}],"stateMutability":"view"},{"type":"function","name":"getAuction","inputs":[{"name":"auctionId","type":"uint256","internalType":"uint256"}],"outputs":[{"name":"","type":"tuple","internalType":"struct LiquidationAuction.Auction","components":[{"name":"loanId","type":"uint256","internalType":"uint256"},{"name":"escrowId","type":"bytes32","internalType":"bytes32"},{"name":"lender","type":"address","internalType":"address"},{"name":"minBid","type":"uint256","internalType":"uint256"},{"name":"highestBid","type":"uint256","internalType":"uint256"},{"name":"highestBidder","type":"address","internalType":"address"},{"name":"endTime","type":"uint256","internalType":"uint256"},{"name":"settled","type":"bool","internalType":"bool"}]}],"stateMutability":"view"},{"type":"function","name":"loanManager","inputs":[],"outputs":[{"name":"","type":"address","internalType":"address"}],"stateMutability":"view"},{"type":"function","name":"nftEscrow","inputs":[],"outputs":[{"name":"","type":"address","internalType":"contract NFTEscrow"}],"stateMutability":"view"},{"type":"function","name":"owner","inputs":[],"outputs":[{"name":"","type":"address","internalType":"address"}],"stateMutability":"view"},{"type":"function","name":"pendingReturns","inputs":[{"name":"","type":"uint256","internalType":"uint256"},{"name":"","type":"address","internalType":"address"}],"outputs":[{"name":"","type":"uint256","internalType":"uint256"}],"stateMutability":"view"},{"type":"function","name":"placeBid","inputs":[{"name":"auctionId","type":"uint256","internalType":"uint256"}],"outputs":[],"stateMutability":"payable"},{"type":"function","name":"renounceOwnership","inputs":[],"outputs":[],"stateMutability":"nonpayable"},{"type":"function","name":"setLoanManager","inputs":[{"name":"_loanManager","type":"address","internalType":"address"}],"outputs":[],"stateMutability":"nonpayable"},{"type":"function","name":"settleAuction","inputs":[{"name":"auctionId","type":"uint256","internalType":"uint256"}],"outputs":[],"stateMutability":"nonpayable"},{"type":"function","name":"startAuction","inputs":[{"name":"loanId","type":"uint256","internalType":"uint256"},{"name":"escrowId","type":"bytes32","internalType":"bytes32"},{"name":"lender","type":"address","internalType":"address"},{"name":"minBid","type":"uint256","internalType":"uint256"}],"outputs":[{"name":"auctionId","type":"uint256","internalType":"uint256"}],"stateMutability":"nonpayable"},{"type":"function","name":"transferOwnership","inputs":[{"name":"newOwner","type":"address","internalType":"address"}],"outputs":[],"stateMutability":"nonpayable"},{"type":"function","name":"withdrawRefund","inputs":[{"name":"auctionId","type":"uint256","internalType":"uint256"}],"outputs":[],"stateMutability":"nonpayable"},{"type":"event","name":"AuctionSettled","inputs":[{"name":"auctionId","type":"uint256","indexed":true,"internalType":"uint256"},{"name":"winner","type":"address","indexed":false,"internalType":"address"},{"name":"amount","type":"uint256","indexed":false,"internalType":"uint256"}],"anonymous":false},{"type":"event","name":"AuctionStarted","inputs":[{"name":"auctionId","type":"uint256","indexed":true,"internalType":"uint256"},{"name":"loanId","type":"uint256","indexed":false,"internalType":"uint256"},{"name":"minBid","type":"uint256","indexed":false,"internalType":"uint256"},{"name":"endTime","type":"uint256","indexed":false,"internalType":"uint256"}],"anonymous":false},{"type":"event","name":"BidPlaced","inputs":[{"name":"auctionId","type":"uint256","indexed":true,"internalType":"uint256"},{"name":"bidder","type":"address","indexed":true,"internalType":"address"},{"name":"amount","type":"uint256","indexed":false,"internalType":"uint256"}],"anonymous":false},{"type":"event","name":"BidRefunded","inputs":[{"name":"auctionId","type":"uint256","indexed":true,"internalType":"uint256"},{"name":"bidder","type":"address","indexed":false,"internalType":"address"},{"name":"amount","type":"uint256","indexed":false,"internalType":"uint256"}],"anonymous":false},{"type":"event","name":"OwnershipTransferred","inputs":[{"name":"previousOwner","type":"address","indexed":true,"internalType":"address"},{"name":"newOwner","type":"address","indexed":true,"internalType":"address"}],"anonymous":false},{"type":"error","name":"OwnableInvalidOwner","inputs":[{"name":"owner","type":"address","internalType":"address"}]},{"type":"error","name":"OwnableUnauthorizedAccount","inputs":[{"name":"account","type":"address","internalType":"address"}]},{"type":"error","name":"ReentrancyGuardReentrantCall","inputs":[]}],"bytecode":{"object":"0x608060405234801562000010575f80fd5b5060405162001f4e38038062001f4e833981810160405281019062000036919062000283565b335f73ffffffffffffffffffffffffffffffffffffffff168173ffffffffffffffffffffffffffffffffffffffff1603620000aa575f6040517f1e4fbdf7000000000000000000000000000000000000000000000000000000008152600401620000a19190620002c4565b60405180910390fd5b620000bb816200012b60201b60201c565b506001620000de620000d2620001ec60201b60201c565b6200021560201b60201c565b5f01819055508060015f6101000a81548173ffffffffffffffffffffffffffffffffffffffff021916908373ffffffffffffffffffffffffffffffffffffffff16021790555050620002df565b5f805f9054906101000a900473ffffffffffffffffffffffffffffffffffffffff169050815f806101000a81548173ffffffffffffffffffffffffffffffffffffffff021916908373ffffffffffffffffffffffffffffffffffffffff1602179055508173ffffffffffffffffffffffffffffffffffffffff168173ffffffffffffffffffffffffffffffffffffffff167f8be0079c531659141344cd1fd0a4f28419497f9722a3daafe3b4186f6b6457e060405160405180910390a35050565b5f7f9b779b17422d0df92223018b32b4d1fa46e071723d6817e2486d003becc55f005f1b905090565b5f819050919050565b5f80fd5b5f73ffffffffffffffffffffffffffffffffffffffff82169050919050565b5f6200024d8262000222565b9050919050565b6200025f8162000241565b81146200026a575f80fd5b50565b5f815190506200027d8162000254565b92915050565b5f602082840312156200029b576200029a6200021e565b5b5f620002aa848285016200026d565b91505092915050565b620002be8162000241565b82525050565b5f602082019050620002d95f830184620002b3565b92915050565b611c6180620002ed5f395ff3fe6080604052600436106100e7575f3560e01c80638da5cb5b11610089578063a271e52511610058578063a271e525146102ce578063b3ccbcfe146102f8578063e770328e14610322578063f2fde38b1461035e576100e7565b80638da5cb5b146102245780638ddac1ef1461024e5780639979ef451461028a5780639d153495146102a6576100e7565b80635772ae70116100c55780635772ae701461018057806362b5bdf8146101a8578063715018a6146101d257806378bd7935146101e8576100e7565b80632ad71573146100eb5780632e99361114610115578063571a26a01461013d575b5f80fd5b3480156100f6575f80fd5b506100ff610386565b60405161010c91906113b6565b60405180910390f35b348015610120575f80fd5b5061013b600480360381019061013691906113fd565b61038c565b005b348015610148575f80fd5b50610163600480360381019061015e91906113fd565b61074d565b604051610177989796959493929190611499565b60405180910390f35b34801561018b575f80fd5b506101a660048036038101906101a1919061153f565b6107db565b005b3480156101b3575f80fd5b506101bc610826565b6040516101c991906115c5565b60405180910390f35b3480156101dd575f80fd5b506101e661084b565b005b3480156101f3575f80fd5b5061020e600480360381019061020991906113fd565b61085e565b60405161021b91906116ba565b60405180910390f35b34801561022f575f80fd5b5061023861097f565b60405161024591906116d4565b60405180910390f35b348015610259575f80fd5b50610274600480360381019061026f91906116ed565b6109a6565b60405161028191906113b6565b60405180910390f35b6102a4600480360381019061029f91906113fd565b6109c6565b005b3480156102b1575f80fd5b506102cc60048036038101906102c791906113fd565b610c8c565b005b3480156102d9575f80fd5b506102e2610e01565b6040516102ef91906113b6565b60405180910390f35b348015610303575f80fd5b5061030c610e08565b60405161031991906116d4565b60405180910390f35b34801561032d575f80fd5b5061034860048036038101906103439190611755565b610e2d565b60405161035591906113b6565b60405180910390f35b348015610369575f80fd5b50610384600480360381019061037f919061153f565b611092565b005b60035481565b610394611116565b5f60045f8381526020019081526020015f20905080600601544210156103ef576040517f08c379a00000000000000000000000000000000000000000000000000000000081526004016103e690611813565b60405180910390fd5b806007015f9054906101000a900460ff1615610440576040517f08c379a00000000000000000000000000000000000000000000000000000000081526004016104379061187b565b60405180910390fd5b6001816007015f6101000a81548160ff0219169083151502179055505f73ffffffffffffffffffffffffffffffffffffffff16816005015f9054906101000a900473ffffffffffffffffffffffffffffffffffffffff1673ffffffffffffffffffffffffffffffffffffffff16146106335760015f9054906101000a900473ffffffffffffffffffffffffffffffffffffffff1673ffffffffffffffffffffffffffffffffffffffff1663b2c8abba8260010154836005015f9054906101000a900473ffffffffffffffffffffffffffffffffffffffff166040518363ffffffff1660e01b8152600401610535929190611899565b5f604051808303815f87803b15801561054c575f80fd5b505af115801561055e573d5f803e3d5ffd5b50505050806002015f9054906101000a900473ffffffffffffffffffffffffffffffffffffffff1673ffffffffffffffffffffffffffffffffffffffff166108fc826004015490811502906040515f60405180830381858888f193505050501580156105cc573d5f803e3d5ffd5b50817fc9f72b276a388619c6d185d146697036241880c36654b1a3ffdad07c24038d99826005015f9054906101000a900473ffffffffffffffffffffffffffffffffffffffff1683600401546040516106269291906118c0565b60405180910390a2610741565b60015f9054906101000a900473ffffffffffffffffffffffffffffffffffffffff1673ffffffffffffffffffffffffffffffffffffffff1663b2c8abba8260010154836002015f9054906101000a900473ffffffffffffffffffffffffffffffffffffffff166040518363ffffffff1660e01b81526004016106b6929190611899565b5f604051808303815f87803b1580156106cd575f80fd5b505af11580156106df573d5f803e3d5ffd5b50505050817fc9f72b276a388619c6d185d146697036241880c36654b1a3ffdad07c24038d99826002015f9054906101000a900473ffffffffffffffffffffffffffffffffffffffff165f604051610738929190611920565b60405180910390a25b5061074a611138565b50565b6004602052805f5260405f205f91509050805f015490806001015490806002015f9054906101000a900473ffffffffffffffffffffffffffffffffffffffff1690806003015490806004015490806005015f9054906101000a900473ffffffffffffffffffffffffffffffffffffffff1690806006015490806007015f9054906101000a900460ff16905088565b6107e3611152565b8060025f6101000a81548173ffffffffffffffffffffffffffffffffffffffff021916908373ffffffffffffffffffffffffffffffffffffffff16021790555050565b60015f9054906101000a900473ffffffffffffffffffffffffffffffffffffffff1681565b610853611152565b61085c5f6111d9565b565b610866611330565b60045f8381526020019081526020015f20604051806101000160405290815f820154815260200160018201548152602001600282015f9054906101000a900473ffffffffffffffffffffffffffffffffffffffff1673ffffffffffffffffffffffffffffffffffffffff1673ffffffffffffffffffffffffffffffffffffffff1681526020016003820154815260200160048201548152602001600582015f9054906101000a900473ffffffffffffffffffffffffffffffffffffffff1673ffffffffffffffffffffffffffffffffffffffff1673ffffffffffffffffffffffffffffffffffffffff16815260200160068201548152602001600782015f9054906101000a900460ff1615151515815250509050919050565b5f805f9054906101000a900473ffffffffffffffffffffffffffffffffffffffff16905090565b6005602052815f5260405f20602052805f5260405f205f91509150505481565b6109ce611116565b5f60045f8381526020019081526020015f20905080600601544210610a28576040517f08c379a0000000000000000000000000000000000000000000000000000000008152600401610a1f90611991565b60405180910390fd5b806007015f9054906101000a900460ff1615610a79576040517f08c379a0000000000000000000000000000000000000000000000000000000008152600401610a709061187b565b60405180910390fd5b8060030154341015610ac0576040517f08c379a0000000000000000000000000000000000000000000000000000000008152600401610ab7906119f9565b60405180910390fd5b80600401543411610b06576040517f08c379a0000000000000000000000000000000000000000000000000000000008152600401610afd90611a61565b60405180910390fd5b5f73ffffffffffffffffffffffffffffffffffffffff16816005015f9054906101000a900473ffffffffffffffffffffffffffffffffffffffff1673ffffffffffffffffffffffffffffffffffffffff1614610be657806004015460055f8481526020019081526020015f205f836005015f9054906101000a900473ffffffffffffffffffffffffffffffffffffffff1673ffffffffffffffffffffffffffffffffffffffff1673ffffffffffffffffffffffffffffffffffffffff1681526020019081526020015f205f828254610bde9190611aac565b925050819055505b34816004018190555033816005015f6101000a81548173ffffffffffffffffffffffffffffffffffffffff021916908373ffffffffffffffffffffffffffffffffffffffff1602179055503373ffffffffffffffffffffffffffffffffffffffff16827f0e54eff26401bf69b81b26f60bd85ef47f5d85275c1d268d84f68d6897431c4734604051610c7891906113b6565b60405180910390a350610c89611138565b50565b610c94611116565b5f60055f8381526020019081526020015f205f3373ffffffffffffffffffffffffffffffffffffffff1673ffffffffffffffffffffffffffffffffffffffff1681526020019081526020015f205490505f8111610d26576040517f08c379a0000000000000000000000000000000000000000000000000000000008152600401610d1d90611b29565b60405180910390fd5b5f60055f8481526020019081526020015f205f3373ffffffffffffffffffffffffffffffffffffffff1673ffffffffffffffffffffffffffffffffffffffff1681526020019081526020015f20819055503373ffffffffffffffffffffffffffffffffffffffff166108fc8290811502906040515f60405180830381858888f19350505050158015610dba573d5f803e3d5ffd5b50817fa59312996dc68b7f0224b341fed75d5afeb3bb20624107d37942d14f594281563383604051610ded9291906118c0565b60405180910390a250610dfe611138565b50565b6201518081565b60025f9054906101000a900473ffffffffffffffffffffffffffffffffffffffff1681565b5f60025f9054906101000a900473ffffffffffffffffffffffffffffffffffffffff1673ffffffffffffffffffffffffffffffffffffffff163373ffffffffffffffffffffffffffffffffffffffff1614610ebd576040517f08c379a0000000000000000000000000000000000000000000000000000000008152600401610eb490611b91565b60405180910390fd5b60035f815480929190610ecf90611baf565b9190505590506040518061010001604052808681526020018581526020018473ffffffffffffffffffffffffffffffffffffffff1681526020018381526020015f81526020015f73ffffffffffffffffffffffffffffffffffffffff1681526020016201518042610f409190611aac565b81526020015f151581525060045f8381526020019081526020015f205f820151815f0155602082015181600101556040820151816002015f6101000a81548173ffffffffffffffffffffffffffffffffffffffff021916908373ffffffffffffffffffffffffffffffffffffffff160217905550606082015181600301556080820151816004015560a0820151816005015f6101000a81548173ffffffffffffffffffffffffffffffffffffffff021916908373ffffffffffffffffffffffffffffffffffffffff16021790555060c0820151816006015560e0820151816007015f6101000a81548160ff021916908315150217905550905050807fa832766a05f1bd0298b0268308621777cfe1e4eea23afe7c06beea79bc6ddd2d868460045f8681526020019081526020015f206006015460405161108293929190611bf6565b60405180910390a2949350505050565b61109a611152565b5f73ffffffffffffffffffffffffffffffffffffffff168173ffffffffffffffffffffffffffffffffffffffff160361110a575f6040517f1e4fbdf700000000000000000000000000000000000000000000000000000000815260040161110191906116d4565b60405180910390fd5b611113816111d9565b50565b61111e61129a565b600261113061112b6112db565b611304565b5f0181905550565b600161114a6111456112db565b611304565b5f0181905550565b61115a61130d565b73ffffffffffffffffffffffffffffffffffffffff1661117861097f565b73ffffffffffffffffffffffffffffffffffffffff16146111d75761119b61130d565b6040517f118cdaa70000000000000000000000000000000000000000000000000000000081526004016111ce91906116d4565b60405180910390fd5b565b5f805f9054906101000a900473ffffffffffffffffffffffffffffffffffffffff169050815f806101000a81548173ffffffffffffffffffffffffffffffffffffffff021916908373ffffffffffffffffffffffffffffffffffffffff1602179055508173ffffffffffffffffffffffffffffffffffffffff168173ffffffffffffffffffffffffffffffffffffffff167f8be0079c531659141344cd1fd0a4f28419497f9722a3daafe3b4186f6b6457e060405160405180910390a35050565b6112a2611314565b156112d9576040517f3ee5aeb500000000000000000000000000000000000000000000000000000000815260040160405180910390fd5b565b5f7f9b779b17422d0df92223018b32b4d1fa46e071723d6817e2486d003becc55f005f1b905090565b5f819050919050565b5f33905090565b5f60026113276113226112db565b611304565b5f015414905090565b6040518061010001604052805f81526020015f80191681526020015f73ffffffffffffffffffffffffffffffffffffffff1681526020015f81526020015f81526020015f73ffffffffffffffffffffffffffffffffffffffff1681526020015f81526020015f151581525090565b5f819050919050565b6113b08161139e565b82525050565b5f6020820190506113c95f8301846113a7565b92915050565b5f80fd5b6113dc8161139e565b81146113e6575f80fd5b50565b5f813590506113f7816113d3565b92915050565b5f60208284031215611412576114116113cf565b5b5f61141f848285016113e9565b91505092915050565b5f819050919050565b61143a81611428565b82525050565b5f73ffffffffffffffffffffffffffffffffffffffff82169050919050565b5f61146982611440565b9050919050565b6114798161145f565b82525050565b5f8115159050919050565b6114938161147f565b82525050565b5f610100820190506114ad5f83018b6113a7565b6114ba602083018a611431565b6114c76040830189611470565b6114d460608301886113a7565b6114e160808301876113a7565b6114ee60a0830186611470565b6114fb60c08301856113a7565b61150860e083018461148a565b9998505050505050505050565b61151e8161145f565b8114611528575f80fd5b50565b5f8135905061153981611515565b92915050565b5f60208284031215611554576115536113cf565b5b5f6115618482850161152b565b91505092915050565b5f819050919050565b5f61158d61158861158384611440565b61156a565b611440565b9050919050565b5f61159e82611573565b9050919050565b5f6115af82611594565b9050919050565b6115bf816115a5565b82525050565b5f6020820190506115d85f8301846115b6565b92915050565b6115e78161139e565b82525050565b6115f681611428565b82525050565b6116058161145f565b82525050565b6116148161147f565b82525050565b61010082015f82015161162f5f8501826115de565b50602082015161164260208501826115ed565b50604082015161165560408501826115fc565b50606082015161166860608501826115de565b50608082015161167b60808501826115de565b5060a082015161168e60a08501826115fc565b5060c08201516116a160c08501826115de565b5060e08201516116b460e085018261160b565b50505050565b5f610100820190506116ce5f83018461161a565b92915050565b5f6020820190506116e75f830184611470565b92915050565b5f8060408385031215611703576117026113cf565b5b5f611710858286016113e9565b92505060206117218582860161152b565b9150509250929050565b61173481611428565b811461173e575f80fd5b50565b5f8135905061174f8161172b565b92915050565b5f805f806080858703121561176d5761176c6113cf565b5b5f61177a878288016113e9565b945050602061178b87828801611741565b935050604061179c8782880161152b565b92505060606117ad878288016113e9565b91505092959194509250565b5f82825260208201905092915050565b7f41756374696f6e207374696c6c2072756e6e696e6700000000000000000000005f82015250565b5f6117fd6015836117b9565b9150611808826117c9565b602082019050919050565b5f6020820190508181035f83015261182a816117f1565b9050919050565b7f416c726561647920736574746c656400000000000000000000000000000000005f82015250565b5f611865600f836117b9565b915061187082611831565b602082019050919050565b5f6020820190508181035f83015261189281611859565b9050919050565b5f6040820190506118ac5f830185611431565b6118b96020830184611470565b9392505050565b5f6040820190506118d35f830185611470565b6118e060208301846113a7565b9392505050565b5f819050919050565b5f61190a611905611900846118e7565b61156a565b61139e565b9050919050565b61191a816118f0565b82525050565b5f6040820190506119335f830185611470565b6119406020830184611911565b9392505050565b7f41756374696f6e2068617320656e6465640000000000000000000000000000005f82015250565b5f61197b6011836117b9565b915061198682611947565b602082019050919050565b5f6020820190508181035f8301526119a88161196f565b9050919050565b7f42656c6f77206d696e696d756d206269640000000000000000000000000000005f82015250565b5f6119e36011836117b9565b91506119ee826119af565b602082019050919050565b5f6020820190508181035f830152611a10816119d7565b9050919050565b7f4d75737420626561742063757272656e742068696768657374206269640000005f82015250565b5f611a4b601d836117b9565b9150611a5682611a17565b602082019050919050565b5f6020820190508181035f830152611a7881611a3f565b9050919050565b7f4e487b71000000000000000000000000000000000000000000000000000000005f52601160045260245ffd5b5f611ab68261139e565b9150611ac18361139e565b9250828201905080821115611ad957611ad8611a7f565b5b92915050565b7f4e6f7468696e6720746f207769746864726177000000000000000000000000005f82015250565b5f611b136013836117b9565b9150611b1e82611adf565b602082019050919050565b5f6020820190508181035f830152611b4081611b07565b9050919050565b7f4f6e6c79204c6f616e4d616e61676572000000000000000000000000000000005f82015250565b5f611b7b6010836117b9565b9150611b8682611b47565b602082019050919050565b5f6020820190508181035f830152611ba881611b6f565b9050919050565b5f611bb98261139e565b91507fffffffffffffffffffffffffffffffffffffffffffffffffffffffffffffffff8203611beb57611bea611a7f565b5b600182019050919050565b5f606082019050611c095f8301866113a7565b611c1660208301856113a7565b611c2360408301846113a7565b94935050505056fea2646970667358221220b75051c4178a4e1ca2f240b6f736a521fb3f2e821326bf5ab5d66ca0ad46042d64736f6c63430008140033","linkReferences":{}},"methodIdentifiers":{"AUCTION_DURATION()":"a271e525","auctionCount()":"2ad71573","auctions(uint256)":"571a26a0","getAuction(uint256)":"78bd7935","loanManager()":"b3ccbcfe","nftEscrow()":"62b5bdf8","owner()":"8da5cb5b","pendingReturns(uint256,address)":"8ddac1ef","placeBid(uint256)":"9979ef45","renounceOwnership()":"715018a6","setLoanManager(address)":"5772ae70","settleAuction(uint256)":"2e993611","startAuction(uint256,bytes32,address,uint256)":"e770328e","transferOwnership(address)":"f2fde38b","withdrawRefund(uint256)":"9d153495"},"id":25}