{"abi":[{"type":"constructor","inputs":[],"stateMutability":"nonpayable"},{"type":"function","name":"cancelOffer","inputs":[{"name":"offerId","type":"uint256","internalType":"uint256"}],"outputs":[],"stateMutability":"nonpayable"},{"type":"function","name":"createOffer","inputs":[{"name":"interestRateBps","type":"uint256","internalType":"uint256"},{"name":"durationDays","type":"uint256","internalType":"uint256"}],"outputs":[{"name":"offerId","type":"uint256","internalType":"uint256"}],"stateMutability":"payable"},{"type":"function","name":"getActiveOffers","inputs":[],"outputs":[{"name":"","type":"uint256[]","internalType":"uint256[]"}],"stateMutability":"view"},{"type":"function","name":"getOffer","inputs":[{"name":"offerId","type":"uint256","internalType":"uint256"}],"outputs":[{"name":"","type":"tuple","internalType":"struct LendingPool.Offer","components":[{"name":"lender","type":"address","internalType":"address"},{"name":"amount","type":"uint256","internalType":"uint256"},{"name":"interestRateBps","type":"uint256","internalType":"uint256"},{"name":"durationDays","type":"uint256","internalType":"uint256"},{"name":"active","type":"bool","internalType":"bool"}]}],"stateMutability":"view"},{"type":"function","name":"lenderBalance","inputs":[{"name":"","type":"address","internalType":"address"}],"outputs":[{"name":"","type":"uint256","internalType":"uint256"}],"stateMutability":"view"},{"type":"function","name":"loanManager","inputs":[],"outputs":[{"name":"","type":"address","internalType":"address"}],"stateMutability":"view"},{"type":"function","name":"matchOffer","inputs":[{"name":"offerId","type":"uint256","internalType":"uint256"},{"name":"borrower","type":"address","internalType":"address"}],"outputs":[{"name":"amount","type":"uint256","internalType":"uint256"}],"stateMutability":"nonpayable"},{"type":"function","name":"offerCount","inputs":[],"outputs":[{"name":"","type":"uint256","internalType":"uint256"}],"stateMutability":"view"},{"type":"function","name":"offers","inputs":[{"name":"","type":"uint256","internalType":"uint256"}],"outputs":[{"name":"lender","type":"address","internalType":"address"},{"name":"amount","type":"uint256","internalType":"uint256"},{"name":"interestRateBps","type":"uint256","internalType":"uint256"},{"name":"durationDays","type":"uint256","internalType":"uint256"},{"name":"active","type":"bool","internalType":"bool"}],"stateMutability":"view"},{"type":"function","name":"owner","inputs":[],"outputs":[{"name":"","type":"address","internalType":"address"}],"stateMutability":"view"},{"type":"function","name":"renounceOwnership","inputs":[],"outputs":[],"stateMutability":"nonpayable"},{"type":"function","name":"repayToLender","inputs":[{"name":"lender","type":"address","internalType":"address"},{"name":"amount","type":"uint256","internalType":"uint256"}],"outputs":[],"stateMutability":"payable"},{"type":"function","name":"setLoanManager","inputs":[{"name":"_loanManager","type":"address","internalType":"address"}],"outputs":[],"stateMutability":"nonpayable"},{"type":"function","name":"transferOwnership","inputs":[{"name":"newOwner","type":"address","internalType":"address"}],"outputs":[],"stateMutability":"nonpayable"},{"type":"event","name":"FundsDeposited","inputs":[{"name":"lender","type":"address","indexed":true,"internalType":"address"},{"name":"amount","type":"uint256","indexed":false,"internalType":"uint256"}],"anonymous":false},{"type":"event","name":"FundsWithdrawn","inputs":[{"name":"lender","type":"address","indexed":true,"internalType":"address"},{"name":"amount","type":"uint256","indexed":false,"internalType":"uint256"}],"anonymous":false},{"type":"event","name":"OfferCancelled","inputs":[{"name":"offerId","type":"uint256","indexed":true,"internalType":"uint256"}],"anonymous":false},{"type":"event","name":"OfferCreated","inputs":[{"name":"offerId","type":"uint256","indexed":true,"internalType":"uint256"},{"name":"lender","type":"address","indexed":true,"internalType":"address"},{"name":"amount","type":"uint256","indexed":false,"internalType":"uint256"},{"name":"rateBps","type":"uint256","indexed":false,"internalType":"uint256"},{"name":"durationDays","type":"uint256","indexed":false,"internalType":"uint256"}],"anonymous":false},{"type":"event","name":"OfferMatched","inputs":[{"name":"offerId","type":"uint256","indexed":true,"internalType":"uint256"},{"name":"borrower","type":"address","indexed":true,"internalType":"address"}],"anonymous":false},{"type":"event","name":"OwnershipTransferred","inputs":[{"name":"previousOwner","type":"address","indexed":true,"internalType":"address"},{"name":"newOwner","type":"address","indexed":true,"internalType":"address"}],"anonymous":false},{"type":"error","name":"OwnableInvalidOwner","inputs":[{"name":"owner","type":"address","internalType":"address"}]},{"type":"error","name":"OwnableUnauthorizedAccount","inputs":[{"name":"account","type":"address","internalType":"address"}]},{"type":"error","name":"ReentrancyGuardReentrantCall","inputs":[]}],"bytecode":{"object":"0x608060405234801561000f575f80fd5b50338061003557604051631e4fbdf760e01b81525f600482015260240160405180910390fd5b61003e81610068565b5060017f9b779b17422d0df92223018b32b4d1fa46e071723d6817e2486d003becc55f00556100b7565b5f80546001600160a01b038381166001600160a01b0319831681178455604051919092169283917f8be0079c531659141344cd1fd0a4f28419497f9722a3daafe3b4186f6b6457e09190a35050565b610ca7806100c45f395ff3fe6080604052600436106100d9575f3560e01c80638a72ea6a1161007c578063b3ccbcfe11610057578063b3ccbcfe146102cd578063bfa7b231146102ec578063ef706adf1461030b578063f2fde38b1461032a575f80fd5b80638a72ea6a146102005780638da5cb5b1461028a578063b3b5ae2e146102ba575f80fd5b80634579268a116100b75780634579268a146101435780635772ae70146101aa578063715018a6146101cb5780637ff118ef146101df575f80fd5b80631115c24d146100dd5780631afed87514610105578063275972ca14610118575b5f80fd5b3480156100e8575f80fd5b506100f260025481565b6040519081526020015b60405180910390f35b6100f2610113366004610afe565b610349565b348015610123575f80fd5b506100f2610132366004610b39565b60046020525f908152604090205481565b34801561014e575f80fd5b5061016261015d366004610b59565b61051c565b6040516100fc919081516001600160a01b0316815260208083015190820152604080830151908201526060808301519082015260809182015115159181019190915260a00190565b3480156101b5575f80fd5b506101c96101c4366004610b39565b6105af565b005b3480156101d6575f80fd5b506101c96105d9565b3480156101ea575f80fd5b506101f36105ec565b6040516100fc9190610b70565b34801561020b575f80fd5b5061025661021a366004610b59565b600360208190525f9182526040909120805460018201546002830154938301546004909301546001600160a01b03909216939092909160ff1685565b604080516001600160a01b03909616865260208601949094529284019190915260608301521515608082015260a0016100fc565b348015610295575f80fd5b505f546001600160a01b03165b6040516001600160a01b0390911681526020016100fc565b6101c96102c8366004610bb3565b6106d3565b3480156102d8575f80fd5b506001546102a2906001600160a01b031681565b3480156102f7575f80fd5b506100f2610306366004610bdb565b61079c565b348015610316575f80fd5b506101c9610325366004610b59565b6108db565b348015610335575f80fd5b506101c9610344366004610b39565b6109ff565b5f610352610a39565b5f34116103965760405162461bcd60e51b815260206004820152600d60248201526c09aeae6e840e6cadcc8408aa89609b1b60448201526064015b60405180910390fd5b5f821180156103a7575061016d8211155b6103e65760405162461bcd60e51b815260206004820152601060248201526f24b73b30b634b210323ab930ba34b7b760811b604482015260640161038d565b6113888311156104285760405162461bcd60e51b815260206004820152600d60248201526c0a4c2e8ca40e8dede40d0d2ced609b1b604482015260640161038d565b60028054905f61043783610c05565b909155506040805160a081018252338082523460208084018281528486018a815260608087018b81526001608089018181525f8c81526003808952908c90209a518b546001600160a01b0319166001600160a01b03909116178b559551918a0191909155925160028901555192870192909255516004909501805460ff1916951515959095179094558451918252810188905292830186905292935083917f05a7f246d4cdcfed1a85bd6331d1638fa8d47fffd48ede9a22f93d06641f309c910160405180910390a361051660015f80516020610c5283398151915255565b92915050565b6105546040518060a001604052805f6001600160a01b031681526020015f81526020015f81526020015f81526020015f151581525090565b505f90815260036020818152604092839020835160a08101855281546001600160a01b0316815260018201549281019290925260028101549382019390935290820154606082015260049091015460ff161515608082015290565b6105b7610a54565b600180546001600160a01b0319166001600160a01b0392909216919091179055565b6105e1610a54565b6105ea5f610a80565b565b60605f805b60025481101561062a575f8181526003602052604090206004015460ff1615610622578161061e81610c05565b9250505b6001016105f1565b505f8167ffffffffffffffff81111561064557610645610c29565b60405190808252806020026020018201604052801561066e578160200160208202803683370190505b5090505f805b6002548110156106ca575f8181526003602052604090206004015460ff16156106c2578083836106a381610c05565b9450815181106106b5576106b5610c3d565b6020026020010181815250505b600101610674565b50909392505050565b6001546001600160a01b031633146107205760405162461bcd60e51b815260206004820152601060248201526f27b7363c902637b0b726b0b730b3b2b960811b604482015260640161038d565b8034146107645760405162461bcd60e51b815260206004820152601260248201527115dc9bdb99c81c995c185e48185b5bdd5b9d60721b604482015260640161038d565b6040516001600160a01b0383169082156108fc029083905f818181858888f19350505050158015610797573d5f803e3d5ffd5b505050565b6001545f906001600160a01b031633146107eb5760405162461bcd60e51b815260206004820152601060248201526f27b7363c902637b0b726b0b730b3b2b960811b604482015260640161038d565b6107f3610a39565b5f838152600360205260409020600481015460ff166108475760405162461bcd60e51b815260206004820152601060248201526f4f66666572206e6f742061637469766560801b604482015260640161038d565b60048101805460ff1916905560018101546040519092506001600160a01b0384169083156108fc029084905f818181858888f1935050505015801561088e573d5f803e3d5ffd5b506040516001600160a01b0384169085907f04a47a005f49211531768ca2c23f19a34b21824661b01e4b94e0c3069dd7ac1e905f90a35061051660015f80516020610c5283398151915255565b6108e3610a39565b5f81815260036020526040902080546001600160a01b0316331461093a5760405162461bcd60e51b815260206004820152600e60248201526d2737ba103cb7bab91037b33332b960911b604482015260640161038d565b600481015460ff166109815760405162461bcd60e51b815260206004820152601060248201526f4f66666572206e6f742061637469766560801b604482015260640161038d565b60048101805460ff191690556001810154604051339180156108fc02915f818181858888f193505050501580156109ba573d5f803e3d5ffd5b5060405182907fc28b4aed030bfacc245c0501326e1beb8c0ef0d60e4edc21067fdeb52da2a7aa905f90a2506109fc60015f80516020610c5283398151915255565b50565b610a07610a54565b6001600160a01b038116610a3057604051631e4fbdf760e01b81525f600482015260240161038d565b6109fc81610a80565b610a41610acf565b60025f80516020610c5283398151915255565b5f546001600160a01b031633146105ea5760405163118cdaa760e01b815233600482015260240161038d565b5f80546001600160a01b038381166001600160a01b0319831681178455604051919092169283917f8be0079c531659141344cd1fd0a4f28419497f9722a3daafe3b4186f6b6457e09190a35050565b5f80516020610c52833981519152546002036105ea57604051633ee5aeb560e01b815260040160405180910390fd5b5f8060408385031215610b0f575f80fd5b50508035926020909101359150565b80356001600160a01b0381168114610b34575f80fd5b919050565b5f60208284031215610b49575f80fd5b610b5282610b1e565b9392505050565b5f60208284031215610b69575f80fd5b5035919050565b602080825282518282018190525f9190848201906040850190845b81811015610ba757835183529284019291840191600101610b8b565b50909695505050505050565b5f8060408385031215610bc4575f80fd5b610bcd83610b1e565b946020939093013593505050565b5f8060408385031215610bec575f80fd5b82359150610bfc60208401610b1e565b90509250929050565b5f60018201610c2257634e487b7160e01b5f52601160045260245ffd5b5060010190565b634e487b7160e01b5f52604160045260245ffd5b634e487b7160e01b5f52603260045260245ffdfe9b779b17422d0df92223018b32b4d1fa46e071723d6817e2486d003becc55f00a2646970667358221220976f39195e95e0fb36184809956d6ef0845bc08ed65fabd3fe8d318e99769f7d64736f6c63430008180033","linkReferences":{}},"methodIdentifiers":{"cancelOffer(uint256)":"ef706adf","createOffer(uint256,uint256)":"1afed875","getActiveOffers()":"7ff118ef","getOffer(uint256)":"4579268a","lenderBalance(address)":"275972ca","loanManager()":"b3ccbcfe","matchOffer(uint256,address)":"bfa7b231","offerCount()":"1115c24d","offers(uint256)":"8a72ea6a","owner()":"8da5cb5b","renounceOwnership()":"715018a6","repayToLender(address,uint256)":"b3b5ae2e","setLoanManager(address)":"5772ae70","transferOwnership(address)":"f2fde38b"},"id":41}