{"abi":[{"type":"constructor","inputs":[],"stateMutability":"nonpayable"},{"type":"function","name":"cancelOffer","inputs":[{"name":"offerId","type":"uint256","internalType":"uint256"}],"outputs":[],"stateMutability":"nonpayable"},{"type":"function","name":"createOffer","inputs":[{"name":"interestRateBps","type":"uint256","internalType":"uint256"},{"name":"durationDays","type":"uint256","internalType":"uint256"}],"outputs":[{"name":"offerId","type":"uint256","internalType":"uint256"}],"stateMutability":"payable"},{"type":"function","name":"getActiveOffers","inputs":[],"outputs":[{"name":"","type":"uint256[]","internalType":"uint256[]"}],"stateMutability":"view"},{"type":"function","name":"getOffer","inputs":[{"name":"offerId","type":"uint256","internalType":"uint256"}],"outputs":[{"name":"","type":"tuple","internalType":"struct LendingPool.Offer","components":[{"name":"lender","type":"address","internalType":"address"},{"name":"amount","type":"uint256","internalType":"uint256"},{"name":"interestRateBps","type":"uint256","internalType":"uint256"},{"name":"durationDays","type":"uint256","internalType":"uint256"},{"name":"active","type":"bool","internalType":"bool"}]}],"stateMutability":"view"},{"type":"function","name":"loanManager","inputs":[],"outputs":[{"name":"","type":"address","internalType":"address"}],"stateMutability":"view"},{"type":"function","name":"matchOffer","inputs":[{"name":"offerId","type":"uint256","internalType":"uint256"},{"name":"borrower","type":"address","internalType":"address"}],"outputs":[{"name":"amount","type":"uint256","internalType":"uint256"}],"stateMutability":"nonpayable"},{"type":"function","name":"offerCount","inputs":[],"outputs":[{"name":"","type":"uint256","internalType":"uint256"}],"stateMutability":"view"},{"type":"function","name":"offers","inputs":[{"name":"","type":"uint256","internalType":"uint256"}],"outputs":[{"name":"lender","type":"address","internalType":"address"},{"name":"amount","type":"uint256","internalType":"uint256"},{"name":"interestRateBps","type":"uint256","internalType":"uint256"},{"name":"durationDays","type":"uint256","internalType":"uint256"},{"name":"active","type":"bool","internalType":"bool"}],"stateMutability":"view"},{"type":"function","name":"owner","inputs":[],"outputs":[{"name":"","type":"address","internalType":"address"}],"stateMutability":"view"},{"type":"function","name":"renounceOwnership","inputs":[],"outputs":[],"stateMutability":"nonpayable"},{"type":"function","name":"repayToLender","inputs":[{"name":"lender","type":"address","internalType":"address"},{"name":"amount","type":"uint256","internalType":"uint256"}],"outputs":[],"stateMutability":"payable"},{"type":"function","name":"setLoanManager","inputs":[{"name":"_loanManager","type":"address","internalType":"address"}],"outputs":[],"stateMutability":"nonpayable"},{"type":"function","name":"transferOwnership","inputs":[{"name":"newOwner","type":"address","internalType":"address"}],"outputs":[],"stateMutability":"nonpayable"},{"type":"event","name":"OfferCancelled","inputs":[{"name":"offerId","type":"uint256","indexed":true,"internalType":"uint256"}],"anonymous":false},{"type":"event","name":"OfferCreated","inputs":[{"name":"offerId","type":"uint256","indexed":true,"internalType":"uint256"},{"name":"lender","type":"address","indexed":true,"internalType":"address"},{"name":"amount","type":"uint256","indexed":false,"internalType":"uint256"},{"name":"rateBps","type":"uint256","indexed":false,"internalType":"uint256"},{"name":"durationDays","type":"uint256","indexed":false,"internalType":"uint256"}],"anonymous":false},{"type":"event","name":"OfferMatched","inputs":[{"name":"offerId","type":"uint256","indexed":true,"internalType":"uint256"},{"name":"borrower","type":"address","indexed":true,"internalType":"address"}],"anonymous":false},{"type":"event","name":"OwnershipTransferred","inputs":[{"name":"previousOwner","type":"address","indexed":true,"internalType":"address"},{"name":"newOwner","type":"address","indexed":true,"internalType":"address"}],"anonymous":false},{"type":"error","name":"OwnableInvalidOwner","inputs":[{"name":"owner","type":"address","internalType":"address"}]},{"type":"error","name":"OwnableUnauthorizedAccount","inputs":[{"name":"account","type":"address","internalType":"address"}]},{"type":"error","name":"ReentrancyGuardReentrantCall","inputs":[]}],"bytecode":{"object":"0x608060405234801562000010575f80fd5b50335f73ffffffffffffffffffffffffffffffffffffffff168173ffffffffffffffffffffffffffffffffffffffff160362000085575f6040517f1e4fbdf70000000000000000000000000000000000000000000000000000000081526004016200007c9190620001fb565b60405180910390fd5b6200009681620000c560201b60201c565b506001620000b9620000ad6200018660201b60201c565b620001af60201b60201c565b5f018190555062000216565b5f805f9054906101000a900473ffffffffffffffffffffffffffffffffffffffff169050815f806101000a81548173ffffffffffffffffffffffffffffffffffffffff021916908373ffffffffffffffffffffffffffffffffffffffff1602179055508173ffffffffffffffffffffffffffffffffffffffff168173ffffffffffffffffffffffffffffffffffffffff167f8be0079c531659141344cd1fd0a4f28419497f9722a3daafe3b4186f6b6457e060405160405180910390a35050565b5f7f9b779b17422d0df92223018b32b4d1fa46e071723d6817e2486d003becc55f005f1b905090565b5f819050919050565b5f73ffffffffffffffffffffffffffffffffffffffff82169050919050565b5f620001e382620001b8565b9050919050565b620001f581620001d7565b82525050565b5f602082019050620002105f830184620001ea565b92915050565b6117b180620002245f395ff3fe6080604052600436106100c1575f3560e01c80638a72ea6a1161007e578063b3ccbcfe11610058578063b3ccbcfe14610249578063bfa7b23114610273578063ef706adf146102af578063f2fde38b146102d7576100c1565b80638a72ea6a146101c35780638da5cb5b14610203578063b3b5ae2e1461022d576100c1565b80631115c24d146100c55780631afed875146100ef5780634579268a1461011f5780635772ae701461015b578063715018a6146101835780637ff118ef14610199575b5f80fd5b3480156100d0575f80fd5b506100d96102ff565b6040516100e69190610f70565b60405180910390f35b61010960048036038101906101049190610fb7565b610305565b6040516101169190610f70565b60405180910390f35b34801561012a575f80fd5b5061014560048036038101906101409190610ff5565b610533565b60405161015291906110ee565b60405180910390f35b348015610166575f80fd5b50610181600480360381019061017c9190611131565b6105ea565b005b34801561018e575f80fd5b50610197610635565b005b3480156101a4575f80fd5b506101ad610648565b6040516101ba9190611204565b60405180910390f35b3480156101ce575f80fd5b506101e960048036038101906101e49190610ff5565b610769565b6040516101fa959493929190611242565b60405180910390f35b34801561020e575f80fd5b506102176107c6565b6040516102249190611293565b60405180910390f35b610247600480360381019061024291906112ac565b6107ed565b005b348015610254575f80fd5b5061025d610906565b60405161026a9190611293565b60405180910390f35b34801561027e575f80fd5b50610299600480360381019061029491906112ea565b61092b565b6040516102a69190610f70565b60405180910390f35b3480156102ba575f80fd5b506102d560048036038101906102d09190610ff5565b610ae0565b005b3480156102e2575f80fd5b506102fd60048036038101906102f89190611131565b610c78565b005b60025481565b5f61030e610cfc565b5f3411610350576040517f08c379a000000000000000000000000000000000000000000000000000000000815260040161034790611382565b60405180910390fd5b5f82118015610361575061016d8211155b6103a0576040517f08c379a0000000000000000000000000000000000000000000000000000000008152600401610397906113ea565b60405180910390fd5b6113888311156103e5576040517f08c379a00000000000000000000000000000000000000000000000000000000081526004016103dc90611452565b60405180910390fd5b60025f8154809291906103f79061149d565b9190505590506040518060a001604052803373ffffffffffffffffffffffffffffffffffffffff1681526020013481526020018481526020018381526020016001151581525060035f8381526020019081526020015f205f820151815f015f6101000a81548173ffffffffffffffffffffffffffffffffffffffff021916908373ffffffffffffffffffffffffffffffffffffffff1602179055506020820151816001015560408201518160020155606082015181600301556080820151816004015f6101000a81548160ff0219169083151502179055509050503373ffffffffffffffffffffffffffffffffffffffff16817f05a7f246d4cdcfed1a85bd6331d1638fa8d47fffd48ede9a22f93d06641f309c34868660405161051d939291906114e4565b60405180910390a361052d610d1e565b92915050565b61053b610f16565b60035f8381526020019081526020015f206040518060a00160405290815f82015f9054906101000a900473ffffffffffffffffffffffffffffffffffffffff1673ffffffffffffffffffffffffffffffffffffffff1673ffffffffffffffffffffffffffffffffffffffff168152602001600182015481526020016002820154815260200160038201548152602001600482015f9054906101000a900460ff1615151515815250509050919050565b6105f2610d38565b8060015f6101000a81548173ffffffffffffffffffffffffffffffffffffffff021916908373ffffffffffffffffffffffffffffffffffffffff16021790555050565b61063d610d38565b6106465f610dbf565b565b60605f805b60025481101561069f5760035f8281526020019081526020015f206004015f9054906101000a900460ff161561068c5781806106889061149d565b9250505b80806106979061149d565b91505061064d565b505f8167ffffffffffffffff8111156106bb576106ba611519565b5b6040519080825280602002602001820160405280156106e95781602001602082028036833780820191505090505b5090505f805b60025481101561075f5760035f8281526020019081526020015f206004015f9054906101000a900460ff161561074c578083838061072c9061149d565b94508151811061073f5761073e611546565b5b6020026020010181815250505b80806107579061149d565b9150506106ef565b5081935050505090565b6003602052805f5260405f205f91509050805f015f9054906101000a900473ffffffffffffffffffffffffffffffffffffffff1690806001015490806002015490806003015490806004015f9054906101000a900460ff16905085565b5f805f9054906101000a900473ffffffffffffffffffffffffffffffffffffffff16905090565b60015f9054906101000a900473ffffffffffffffffffffffffffffffffffffffff1673ffffffffffffffffffffffffffffffffffffffff163373ffffffffffffffffffffffffffffffffffffffff161461087c576040517f08c379a0000000000000000000000000000000000000000000000000000000008152600401610873906115bd565b60405180910390fd5b8034146108be576040517f08c379a00000000000000000000000000000000000000000000000000000000081526004016108b590611625565b60405180910390fd5b8173ffffffffffffffffffffffffffffffffffffffff166108fc8290811502906040515f60405180830381858888f19350505050158015610901573d5f803e3d5ffd5b505050565b60015f9054906101000a900473ffffffffffffffffffffffffffffffffffffffff1681565b5f60015f9054906101000a900473ffffffffffffffffffffffffffffffffffffffff1673ffffffffffffffffffffffffffffffffffffffff163373ffffffffffffffffffffffffffffffffffffffff16146109bb576040517f08c379a00000000000000000000000000000000000000000000000000000000081526004016109b2906115bd565b60405180910390fd5b6109c3610cfc565b5f60035f8581526020019081526020015f209050806004015f9054906101000a900460ff16610a27576040517f08c379a0000000000000000000000000000000000000000000000000000000008152600401610a1e9061168d565b60405180910390fd5b5f816004015f6101000a81548160ff021916908315150217905550806001015491508273ffffffffffffffffffffffffffffffffffffffff166108fc8390811502906040515f60405180830381858888f19350505050158015610a8c573d5f803e3d5ffd5b508273ffffffffffffffffffffffffffffffffffffffff16847f04a47a005f49211531768ca2c23f19a34b21824661b01e4b94e0c3069dd7ac1e60405160405180910390a350610ada610d1e565b92915050565b610ae8610cfc565b5f60035f8381526020019081526020015f2090503373ffffffffffffffffffffffffffffffffffffffff16815f015f9054906101000a900473ffffffffffffffffffffffffffffffffffffffff1673ffffffffffffffffffffffffffffffffffffffff1614610b8c576040517f08c379a0000000000000000000000000000000000000000000000000000000008152600401610b83906116f5565b60405180910390fd5b806004015f9054906101000a900460ff16610bdc576040517f08c379a0000000000000000000000000000000000000000000000000000000008152600401610bd39061175d565b60405180910390fd5b5f816004015f6101000a81548160ff0219169083151502179055503373ffffffffffffffffffffffffffffffffffffffff166108fc826001015490811502906040515f60405180830381858888f19350505050158015610c3e573d5f803e3d5ffd5b50817fc28b4aed030bfacc245c0501326e1beb8c0ef0d60e4edc21067fdeb52da2a7aa60405160405180910390a250610c75610d1e565b50565b610c80610d38565b5f73ffffffffffffffffffffffffffffffffffffffff168173ffffffffffffffffffffffffffffffffffffffff1603610cf0575f6040517f1e4fbdf7000000000000000000000000000000000000000000000000000000008152600401610ce79190611293565b60405180910390fd5b610cf981610dbf565b50565b610d04610e80565b6002610d16610d11610ec1565b610eea565b5f0181905550565b6001610d30610d2b610ec1565b610eea565b5f0181905550565b610d40610ef3565b73ffffffffffffffffffffffffffffffffffffffff16610d5e6107c6565b73ffffffffffffffffffffffffffffffffffffffff1614610dbd57610d81610ef3565b6040517f118cdaa7000000000000000000000000000000000000000000000000000000008152600401610db49190611293565b60405180910390fd5b565b5f805f9054906101000a900473ffffffffffffffffffffffffffffffffffffffff169050815f806101000a81548173ffffffffffffffffffffffffffffffffffffffff021916908373ffffffffffffffffffffffffffffffffffffffff1602179055508173ffffffffffffffffffffffffffffffffffffffff168173ffffffffffffffffffffffffffffffffffffffff167f8be0079c531659141344cd1fd0a4f28419497f9722a3daafe3b4186f6b6457e060405160405180910390a35050565b610e88610efa565b15610ebf576040517f3ee5aeb500000000000000000000000000000000000000000000000000000000815260040160405180910390fd5b565b5f7f9b779b17422d0df92223018b32b4d1fa46e071723d6817e2486d003becc55f005f1b905090565b5f819050919050565b5f33905090565b5f6002610f0d610f08610ec1565b610eea565b5f015414905090565b6040518060a001604052805f73ffffffffffffffffffffffffffffffffffffffff1681526020015f81526020015f81526020015f81526020015f151581525090565b5f819050919050565b610f6a81610f58565b82525050565b5f602082019050610f835f830184610f61565b92915050565b5f80fd5b610f9681610f58565b8114610fa0575f80fd5b50565b5f81359050610fb181610f8d565b92915050565b5f8060408385031215610fcd57610fcc610f89565b5b5f610fda85828601610fa3565b9250506020610feb85828601610fa3565b9150509250929050565b5f6020828403121561100a57611009610f89565b5b5f61101784828501610fa3565b91505092915050565b5f73ffffffffffffffffffffffffffffffffffffffff82169050919050565b5f61104982611020565b9050919050565b6110598161103f565b82525050565b61106881610f58565b82525050565b5f8115159050919050565b6110828161106e565b82525050565b60a082015f82015161109c5f850182611050565b5060208201516110af602085018261105f565b5060408201516110c2604085018261105f565b5060608201516110d5606085018261105f565b5060808201516110e86080850182611079565b50505050565b5f60a0820190506111015f830184611088565b92915050565b6111108161103f565b811461111a575f80fd5b50565b5f8135905061112b81611107565b92915050565b5f6020828403121561114657611145610f89565b5b5f6111538482850161111d565b91505092915050565b5f81519050919050565b5f82825260208201905092915050565b5f819050602082019050919050565b5f611190838361105f565b60208301905092915050565b5f602082019050919050565b5f6111b28261115c565b6111bc8185611166565b93506111c783611176565b805f5b838110156111f75781516111de8882611185565b97506111e98361119c565b9250506001810190506111ca565b5085935050505092915050565b5f6020820190508181035f83015261121c81846111a8565b905092915050565b61122d8161103f565b82525050565b61123c8161106e565b82525050565b5f60a0820190506112555f830188611224565b6112626020830187610f61565b61126f6040830186610f61565b61127c6060830185610f61565b6112896080830184611233565b9695505050505050565b5f6020820190506112a65f830184611224565b92915050565b5f80604083850312156112c2576112c1610f89565b5b5f6112cf8582860161111d565b92505060206112e085828601610fa3565b9150509250929050565b5f8060408385031215611300576112ff610f89565b5b5f61130d85828601610fa3565b925050602061131e8582860161111d565b9150509250929050565b5f82825260208201905092915050565b7f4d7573742073656e6420455448000000000000000000000000000000000000005f82015250565b5f61136c600d83611328565b915061137782611338565b602082019050919050565b5f6020820190508181035f83015261139981611360565b9050919050565b7f4475726174696f6e206d75737420626520312d333635206461797300000000005f82015250565b5f6113d4601b83611328565b91506113df826113a0565b602082019050919050565b5f6020820190508181035f830152611401816113c8565b9050919050565b7f4d617820696e74657265737420697320353025000000000000000000000000005f82015250565b5f61143c601383611328565b915061144782611408565b602082019050919050565b5f6020820190508181035f83015261146981611430565b9050919050565b7f4e487b71000000000000000000000000000000000000000000000000000000005f52601160045260245ffd5b5f6114a782610f58565b91507fffffffffffffffffffffffffffffffffffffffffffffffffffffffffffffffff82036114d9576114d8611470565b5b600182019050919050565b5f6060820190506114f75f830186610f61565b6115046020830185610f61565b6115116040830184610f61565b949350505050565b7f4e487b71000000000000000000000000000000000000000000000000000000005f52604160045260245ffd5b7f4e487b71000000000000000000000000000000000000000000000000000000005f52603260045260245ffd5b7f4f6e6c79204c6f616e4d616e61676572000000000000000000000000000000005f82015250565b5f6115a7601083611328565b91506115b282611573565b602082019050919050565b5f6020820190508181035f8301526115d48161159b565b9050919050565b7f416d6f756e74206d69736d6174636800000000000000000000000000000000005f82015250565b5f61160f600f83611328565b915061161a826115db565b602082019050919050565b5f6020820190508181035f83015261163c81611603565b9050919050565b7f4f66666572206e6f7420616374697665000000000000000000000000000000005f82015250565b5f611677601083611328565b915061168282611643565b602082019050919050565b5f6020820190508181035f8301526116a48161166b565b9050919050565b7f4e6f7420796f7572206f666665720000000000000000000000000000000000005f82015250565b5f6116df600e83611328565b91506116ea826116ab565b602082019050919050565b5f6020820190508181035f83015261170c816116d3565b9050919050565b7f416c726561647920696e616374697665000000000000000000000000000000005f82015250565b5f611747601083611328565b915061175282611713565b602082019050919050565b5f6020820190508181035f8301526117748161173b565b905091905056fea26469706673582212200f3424b6aa04a07b10b84d0bf0c51c487e4e966fe08df03cb462bcf17bc0c23d64736f6c63430008140033","linkReferences":{}},"methodIdentifiers":{"cancelOffer(uint256)":"ef706adf","createOffer(uint256,uint256)":"1afed875","getActiveOffers()":"7ff118ef","getOffer(uint256)":"4579268a","loanManager()":"b3ccbcfe","matchOffer(uint256,address)":"bfa7b231","offerCount()":"1115c24d","offers(uint256)":"8a72ea6a","owner()":"8da5cb5b","renounceOwnership()":"715018a6","repayToLender(address,uint256)":"b3b5ae2e","setLoanManager(address)":"5772ae70","transferOwnership(address)":"f2fde38b"},"id":24}