{"abi":[{"type":"constructor","inputs":[{"name":"_escrow","type":"address","internalType":"address"},{"name":"_pool","type":"address","internalType":"address"},{"name":"_auction","type":"address","internalType":"address"}],"stateMutability":"nonpayable"},{"type":"function","name":"borrowerLoans","inputs":[{"name":"","type":"address","internalType":"address"},{"name":"","type":"uint256","internalType":"uint256"}],"outputs":[{"name":"","type":"uint256","internalType":"uint256"}],"stateMutability":"view"},{"type":"function","name":"completeLiquidation","inputs":[{"name":"loanId","type":"uint256","internalType":"uint256"}],"outputs":[],"stateMutability":"nonpayable"},{"type":"function","name":"getBorrowerLoans","inputs":[{"name":"borrower","type":"address","internalType":"address"}],"outputs":[{"name":"","type":"uint256[]","internalType":"uint256[]"}],"stateMutability":"view"},{"type":"function","name":"getLenderLoans","inputs":[{"name":"lender","type":"address","internalType":"address"}],"outputs":[{"name":"","type":"uint256[]","internalType":"uint256[]"}],"stateMutability":"view"},{"type":"function","name":"getLoan","inputs":[{"name":"loanId","type":"uint256","internalType":"uint256"}],"outputs":[{"name":"","type":"tuple","internalType":"struct LoanManager.Loan","components":[{"name":"borrower","type":"address","internalType":"address"},{"name":"lender","type":"address","internalType":"address"},{"name":"escrowId","type":"bytes32","internalType":"bytes32"},{"name":"offerId","type":"uint256","internalType":"uint256"},{"name":"principal","type":"uint256","internalType":"uint256"},{"name":"interestRateBps","type":"uint256","internalType":"uint256"},{"name":"startTime","type":"uint256","internalType":"uint256"},{"name":"durationDays","type":"uint256","internalType":"uint256"},{"name":"status","type":"uint8","internalType":"enum LoanManager.LoanStatus"}]}],"stateMutability":"view"},{"type":"function","name":"getTotalDue","inputs":[{"name":"loanId","type":"uint256","internalType":"uint256"}],"outputs":[{"name":"","type":"uint256","internalType":"uint256"}],"stateMutability":"view"},{"type":"function","name":"isExpired","inputs":[{"name":"loanId","type":"uint256","internalType":"uint256"}],"outputs":[{"name":"","type":"bool","internalType":"bool"}],"stateMutability":"view"},{"type":"function","name":"lenderLoans","inputs":[{"name":"","type":"address","internalType":"address"},{"name":"","type":"uint256","internalType":"uint256"}],"outputs":[{"name":"","type":"uint256","internalType":"uint256"}],"stateMutability":"view"},{"type":"function","name":"lendingPool","inputs":[],"outputs":[{"name":"","type":"address","internalType":"contract LendingPool"}],"stateMutability":"view"},{"type":"function","name":"liquidationAuction","inputs":[],"outputs":[{"name":"","type":"address","internalType":"contract LiquidationAuction"}],"stateMutability":"view"},{"type":"function","name":"loanCount","inputs":[],"outputs":[{"name":"","type":"uint256","internalType":"uint256"}],"stateMutability":"view"},{"type":"function","name":"loans","inputs":[{"name":"","type":"uint256","internalType":"uint256"}],"outputs":[{"name":"borrower","type":"address","internalType":"address"},{"name":"lender","type":"address","internalType":"address"},{"name":"escrowId","type":"bytes32","internalType":"bytes32"},{"name":"offerId","type":"uint256","internalType":"uint256"},{"name":"principal","type":"uint256","internalType":"uint256"},{"name":"interestRateBps","type":"uint256","internalType":"uint256"},{"name":"startTime","type":"uint256","internalType":"uint256"},{"name":"durationDays","type":"uint256","internalType":"uint256"},{"name":"status","type":"uint8","internalType":"enum LoanManager.LoanStatus"}],"stateMutability":"view"},{"type":"function","name":"nftEscrow","inputs":[],"outputs":[{"name":"","type":"address","internalType":"contract NFTEscrow"}],"stateMutability":"view"},{"type":"function","name":"owner","inputs":[],"outputs":[{"name":"","type":"address","internalType":"address"}],"stateMutability":"view"},{"type":"function","name":"renounceOwnership","inputs":[],"outputs":[],"stateMutability":"nonpayable"},{"type":"function","name":"repayLoan","inputs":[{"name":"loanId","type":"uint256","internalType":"uint256"}],"outputs":[],"stateMutability":"payable"},{"type":"function","name":"takeLoan","inputs":[{"name":"escrowId","type":"bytes32","internalType":"bytes32"},{"name":"offerId","type":"uint256","internalType":"uint256"}],"outputs":[{"name":"loanId","type":"uint256","internalType":"uint256"}],"stateMutability":"nonpayable"},{"type":"function","name":"transferOwnership","inputs":[{"name":"newOwner","type":"address","internalType":"address"}],"outputs":[],"stateMutability":"nonpayable"},{"type":"function","name":"triggerDefault","inputs":[{"name":"loanId","type":"uint256","internalType":"uint256"}],"outputs":[],"stateMutability":"nonpayable"},{"type":"event","name":"LoanCreated","inputs":[{"name":"loanId","type":"uint256","indexed":true,"internalType":"uint256"},{"name":"borrower","type":"address","indexed":false,"internalType":"address"},{"name":"lender","type":"address","indexed":false,"internalType":"address"},{"name":"principal","type":"uint256","indexed":false,"internalType":"uint256"}],"anonymous":false},{"type":"event","name":"LoanDefaulted","inputs":[{"name":"loanId","type":"uint256","indexed":true,"internalType":"uint256"}],"anonymous":false},{"type":"event","name":"LoanLiquidated","inputs":[{"name":"loanId","type":"uint256","indexed":true,"internalType":"uint256"}],"anonymous":false},{"type":"event","name":"LoanRepaid","inputs":[{"name":"loanId","type":"uint256","indexed":true,"internalType":"uint256"},{"name":"totalRepaid","type":"uint256","indexed":false,"internalType":"uint256"}],"anonymous":false},{"type":"event","name":"OwnershipTransferred","inputs":[{"name":"previousOwner","type":"address","indexed":true,"internalType":"address"},{"name":"newOwner","type":"address","indexed":true,"internalType":"address"}],"anonymous":false},{"type":"error","name":"OwnableInvalidOwner","inputs":[{"name":"owner","type":"address","internalType":"address"}]},{"type":"error","name":"OwnableUnauthorizedAccount","inputs":[{"name":"account","type":"address","internalType":"address"}]},{"type":"error","name":"ReentrancyGuardReentrantCall","inputs":[]}],"bytecode":{"object":"0x608060405234801562000010575f80fd5b50604051620017cc380380620017cc833981016040819052620000339162000137565b33806200005957604051631e4fbdf760e01b81525f600482015260240160405180910390fd5b6200006481620000cc565b5060017f9b779b17422d0df92223018b32b4d1fa46e071723d6817e2486d003becc55f0055600180546001600160a01b039485166001600160a01b0319918216179091556002805493851693821693909317909255600380549190931691161790556200017e565b5f80546001600160a01b038381166001600160a01b0319831681178455604051919092169283917f8be0079c531659141344cd1fd0a4f28419497f9722a3daafe3b4186f6b6457e09190a35050565b80516001600160a01b038116811462000132575f80fd5b919050565b5f805f606084860312156200014a575f80fd5b62000155846200011b565b925062000165602085016200011b565b915062000175604085016200011b565b90509250925092565b611640806200018c5f395ff3fe608060405260043610610110575f3560e01c8063ab7b1c891161009d578063eee8b7ff11610062578063eee8b7ff14610357578063eeeb0c1714610383578063f2fde38b146103a2578063fa1b751c146103c1578063fa2da48c146103e0575f80fd5b8063ab7b1c8914610257578063ce63094d1461026a578063d9548e531461027f578063e1ec3c68146102ae578063e3ed190214610338575f80fd5b806363825392116100e357806363825392146101c8578063715018a6146101e957806377ce1697146101fd5780638da5cb5b1461021c578063a59a997314610238575f80fd5b80633cdb72f1146101145780634f4cf42814610146578063504006ca1461016557806362b5bdf814610191575b5f80fd5b34801561011f575f80fd5b5061013361012e36600461125a565b6103ff565b6040519081526020015b60405180910390f35b348015610151575f80fd5b50610133610160366004611284565b61042a565b348015610170575f80fd5b5061018461017f366004611284565b610532565b60405161013d91906112cf565b34801561019c575f80fd5b506001546101b0906001600160a01b031681565b6040516001600160a01b03909116815260200161013d565b3480156101d3575f80fd5b506101e76101e2366004611284565b61062d565b005b3480156101f4575f80fd5b506101e76107d0565b348015610208575f80fd5b50610133610217366004611348565b6107e3565b348015610227575f80fd5b505f546001600160a01b03166101b0565b348015610243575f80fd5b506002546101b0906001600160a01b031681565b6101e7610265366004611284565b610c52565b348015610275575f80fd5b5061013360045481565b34801561028a575f80fd5b5061029e610299366004611284565b610ecd565b604051901515815260200161013d565b3480156102b9575f80fd5b506103236102c8366004611284565b600560208190525f91825260409091208054600182015460028301546003840154600485015495850154600686015460078701546008909701546001600160a01b039687169895909616969395929493919290919060ff1689565b60405161013d99989796959493929190611368565b348015610343575f80fd5b5061013361035236600461125a565b610fa1565b348015610362575f80fd5b506103766103713660046113c7565b610fba565b60405161013d91906113e9565b34801561038e575f80fd5b5061037661039d3660046113c7565b611023565b3480156103ad575f80fd5b506101e76103bc3660046113c7565b61108a565b3480156103cc575f80fd5b506101e76103db366004611284565b6110c4565b3480156103eb575f80fd5b506003546101b0906001600160a01b031681565b6007602052815f5260405f208181548110610418575f80fd5b905f5260205f20015f91509150505481565b5f81815260056020818152604080842081516101208101835281546001600160a01b039081168252600183015416938101939093526002810154918301919091526003808201546060840152600482015460808401529281015460a0830152600681015460c0830152600781015460e08301526008810154849361010084019160ff16908111156104bd576104bd61129b565b60038111156104ce576104ce61129b565b8152505090505f8160c00151426104e59190611440565b90505f64496cebb800828460a0015185608001516105039190611453565b61050d9190611453565b610517919061146a565b90508083608001516105299190611489565b95945050505050565b61057e60408051610120810182525f80825260208201819052918101829052606081018290526080810182905260a0810182905260c0810182905260e081018290529061010082015290565b5f8281526005602081815260409283902083516101208101855281546001600160a01b039081168252600183015416928101929092526002810154938201939093526003808401546060830152600484015460808301529183015460a0820152600683015460c0820152600783015460e0820152600883015490929161010084019160ff16908111156106135761061361129b565b60038111156106245761062461129b565b90525092915050565b610635611181565b5f81815260056020526040812090600882015460ff16600381111561065c5761065c61129b565b146106a05760405162461bcd60e51b815260206004820152600f60248201526e4c6f616e206e6f742061637469766560881b60448201526064015b60405180910390fd5b6106a982610ecd565b6106e85760405162461bcd60e51b815260206004820152601060248201526f131bd85b881b9bdd08195e1c1a5c995960821b6044820152606401610697565b60088101805460ff1916600390811790915554600282015460018301546004808501546040516373b8194760e11b815291820187905260248201939093526001600160a01b03918216604482015260648101929092529091169063e770328e906084016020604051808303815f875af1158015610767573d5f803e3d5ffd5b505050506040513d601f19601f8201168201806040525081019061078b919061149c565b5060405182907f0789b7097e8066538cfaa1132488b132e14ba5f0c938c8b7aaf8cf40356aab0b905f90a2506107cd60015f805160206115eb83398151915255565b50565b6107d861119c565b6107e15f6111c8565b565b5f6107ec611181565b60015460405163f023b81160e01b8152600481018590525f916001600160a01b03169063f023b81190602401608060405180830381865afa158015610833573d5f803e3d5ffd5b505050506040513d601f19601f8201168201806040525081019061085791906114c7565b80519091506001600160a01b031633146108a35760405162461bcd60e51b815260206004820152600d60248201526c2737ba1027232a1037bbb732b960991b6044820152606401610697565b8060600151156108ea5760405162461bcd60e51b815260206004820152601260248201527113919508185b1c9958591e481b1bd8dad95960721b6044820152606401610697565b6002546040516322bc934560e11b8152600481018590525f916001600160a01b031690634579268a9060240160a060405180830381865afa158015610931573d5f803e3d5ffd5b505050506040513d601f19601f82011682018060405250810190610955919061154b565b9050806080015161099b5760405162461bcd60e51b815260206004820152601060248201526f4f66666572206e6f742061637469766560801b6044820152606401610697565b600154604051636bfe977160e11b8152600481018790526001600160a01b039091169063d7fd2ee2906024015f604051808303815f87803b1580156109de575f80fd5b505af11580156109f0573d5f803e3d5ffd5b505060025460405163bfa7b23160e01b8152600481018890523360248201526001600160a01b03909116925063bfa7b23191506044016020604051808303815f875af1158015610a42573d5f803e3d5ffd5b505050506040513d601f19601f82011682018060405250810190610a66919061149c565b5060048054905f610a76836115d2565b919050559250604051806101200160405280336001600160a01b03168152602001825f01516001600160a01b031681526020018681526020018581526020018260200151815260200182604001518152602001428152602001826060015181526020015f6003811115610aeb57610aeb61129b565b90525f84815260056020818152604092839020845181546001600160a01b039182166001600160a01b03199182161783559286015160018084018054929093169190941617905592840151600284015560608401516003808501919091556080850151600485015560a08501519284019290925560c0840151600684015560e084015160078401556101008401516008840180549193909260ff1990921691908490811115610b9c57610b9c61129b565b021790555050335f8181526006602090815260408083208054600180820183559185528385200189905586516001600160a01b03908116855260078452828520805492830181558552938390200188905585518683015182519586529316918401919091528201528491507f74b3e97b2a36ecfc8a1c59a0f98862174d98f86769a3420cf68024a054f87b6d9060600160405180910390a25050610c4c60015f805160206115eb83398151915255565b92915050565b610c5a611181565b5f81815260056020526040902080546001600160a01b03163314610caf5760405162461bcd60e51b815260206004820152600c60248201526b2737ba103137b93937bbb2b960a11b6044820152606401610697565b5f600882015460ff166003811115610cc957610cc961129b565b14610d085760405162461bcd60e51b815260206004820152600f60248201526e4c6f616e206e6f742061637469766560881b6044820152606401610697565b5f610d128361042a565b905080341015610d5d5760405162461bcd60e51b8152602060048201526016602482015275125b9cdd59999a58da595b9d081c995c185e5b595b9d60521b6044820152606401610697565b60088201805460ff1916600190811790915554600283015483546040516301ce112560e61b815260048101929092526001600160a01b039081166024830152909116906373844940906044015f604051808303815f87803b158015610dc0575f80fd5b505af1158015610dd2573d5f803e3d5ffd5b505060025460018501546040516359dad71760e11b81526001600160a01b039182166004820152602481018690529116925063b3b5ae2e915083906044015f604051808303818588803b158015610e27575f80fd5b505af1158015610e39573d5f803e3d5ffd5b505050505080341115610e7b57336108fc610e548334611440565b6040518115909202915f818181858888f19350505050158015610e79573d5f803e3d5ffd5b505b827f040cee90ee4799897c30ca04e5feb6fa43dbba9b6d084b4b257cdafd84ba013e82604051610ead91815260200190565b60405180910390a250506107cd60015f805160206115eb83398151915255565b5f81815260056020818152604080842081516101208101835281546001600160a01b039081168252600183015416938101939093526002810154918301919091526003808201546060840152600482015460808401529281015460a0830152600681015460c0830152600781015460e08301526008810154849361010084019160ff1690811115610f6057610f6061129b565b6003811115610f7157610f7161129b565b90525060e0810151909150610f899062015180611453565b8160c00151610f989190611489565b42119392505050565b6006602052815f5260405f208181548110610418575f80fd5b6001600160a01b0381165f9081526006602090815260409182902080548351818402810184019094528084526060939283018282801561101757602002820191905f5260205f20905b815481526020019060010190808311611003575b50505050509050919050565b6001600160a01b0381165f9081526007602090815260409182902080548351818402810184019094528084526060939283018282801561101757602002820191905f5260205f20908154815260200190600101908083116110035750505050509050919050565b61109261119c565b6001600160a01b0381166110bb57604051631e4fbdf760e01b81525f6004820152602401610697565b6107cd816111c8565b6110cc611181565b5f8181526005602052604090206003600882015460ff1660038111156110f4576110f461129b565b146111315760405162461bcd60e51b815260206004820152600d60248201526c139bdd08191959985d5b1d1959609a1b6044820152606401610697565b60088101805460ff1916600217905560405182907faf91ffe368225045d42f7c2b4b90feb438133ac1e375e73bc9066652b70a1d77905f90a2506107cd60015f805160206115eb83398151915255565b611189611217565b60025f805160206115eb83398151915255565b5f546001600160a01b031633146107e15760405163118cdaa760e01b8152336004820152602401610697565b5f80546001600160a01b038381166001600160a01b0319831681178455604051919092169283917f8be0079c531659141344cd1fd0a4f28419497f9722a3daafe3b4186f6b6457e09190a35050565b5f805160206115eb833981519152546002036107e157604051633ee5aeb560e01b815260040160405180910390fd5b6001600160a01b03811681146107cd575f80fd5b5f806040838503121561126b575f80fd5b823561127681611246565b946020939093013593505050565b5f60208284031215611294575f80fd5b5035919050565b634e487b7160e01b5f52602160045260245ffd5b600481106112cb57634e487b7160e01b5f52602160045260245ffd5b9052565b5f6101208201905060018060a01b038084511683528060208501511660208401525060408301516040830152606083015160608301526080830151608083015260a083015160a083015260c083015160c083015260e083015160e083015261010080840151611340828501826112af565b505092915050565b5f8060408385031215611359575f80fd5b50508035926020909101359150565b6001600160a01b038a811682528916602082015260408101889052606081018790526080810186905260a0810185905260c0810184905260e0810183905261012081016113b96101008301846112af565b9a9950505050505050505050565b5f602082840312156113d7575f80fd5b81356113e281611246565b9392505050565b602080825282518282018190525f9190848201906040850190845b8181101561142057835183529284019291840191600101611404565b50909695505050505050565b634e487b7160e01b5f52601160045260245ffd5b81810381811115610c4c57610c4c61142c565b8082028115828204841417610c4c57610c4c61142c565b5f8261148457634e487b7160e01b5f52601260045260245ffd5b500490565b80820180821115610c4c57610c4c61142c565b5f602082840312156114ac575f80fd5b5051919050565b805180151581146114c2575f80fd5b919050565b5f608082840312156114d7575f80fd5b6040516080810181811067ffffffffffffffff8211171561150657634e487b7160e01b5f52604160045260245ffd5b604052825161151481611246565b8152602083015161152481611246565b60208201526040838101519082015261153f606084016114b3565b60608201529392505050565b5f60a0828403121561155b575f80fd5b60405160a0810181811067ffffffffffffffff8211171561158a57634e487b7160e01b5f52604160045260245ffd5b604052825161159881611246565b808252506020830151602082015260408301516040820152606083015160608201526115c6608084016114b3565b60808201529392505050565b5f600182016115e3576115e361142c565b506001019056fe9b779b17422d0df92223018b32b4d1fa46e071723d6817e2486d003becc55f00a2646970667358221220128c543fae90b5e22a896550aba85b5c383bad3427facd678886014dc98c0ec464736f6c63430008180033","linkReferences":{}},"methodIdentifiers":{"borrowerLoans(address,uint256)":"e3ed1902","completeLiquidation(uint256)":"fa1b751c","getBorrowerLoans(address)":"eee8b7ff","getLenderLoans(address)":"eeeb0c17","getLoan(uint256)":"504006ca","getTotalDue(uint256)":"4f4cf428","isExpired(uint256)":"d9548e53","lenderLoans(address,uint256)":"3cdb72f1","lendingPool()":"a59a9973","liquidationAuction()":"fa2da48c","loanCount()":"ce63094d","loans(uint256)":"e1ec3c68","nftEscrow()":"62b5bdf8","owner()":"8da5cb5b","renounceOwnership()":"715018a6","repayLoan(uint256)":"ab7b1c89","takeLoan(bytes32,uint256)":"77ce1697","transferOwnership(address)":"f2fde38b","triggerDefault(uint256)":"63825392"},"id":43}