{"abi":[{"type":"constructor","inputs":[{"name":"_escrow","type":"address","internalType":"address"},{"name":"_pool","type":"address","internalType":"address"},{"name":"_auction","type":"address","internalType":"address"}],"stateMutability":"nonpayable"},{"type":"function","name":"borrowerLoans","inputs":[{"name":"","type":"address","internalType":"address"},{"name":"","type":"uint256","internalType":"uint256"}],"outputs":[{"name":"","type":"uint256","internalType":"uint256"}],"stateMutability":"view"},{"type":"function","name":"completeLiquidation","inputs":[{"name":"loanId","type":"uint256","internalType":"uint256"}],"outputs":[],"stateMutability":"nonpayable"},{"type":"function","name":"getBorrowerLoans","inputs":[{"name":"borrower","type":"address","internalType":"address"}],"outputs":[{"name":"","type":"uint256[]","internalType":"uint256[]"}],"stateMutability":"view"},{"type":"function","name":"getLenderLoans","inputs":[{"name":"lender","type":"address","internalType":"address"}],"outputs":[{"name":"","type":"uint256[]","internalType":"uint256[]"}],"stateMutability":"view"},{"type":"function","name":"getLoan","inputs":[{"name":"loanId","type":"uint256","internalType":"uint256"}],"outputs":[{"name":"","type":"tuple","internalType":"struct LoanManager.Loan","components":[{"name":"borrower","type":"address","internalType":"address"},{"name":"lender","type":"address","internalType":"address"},{"name":"escrowId","type":"bytes32","internalType":"bytes32"},{"name":"offerId","type":"uint256","internalType":"uint256"},{"name":"principal","type":"uint256","internalType":"uint256"},{"name":"interestRateBps","type":"uint256","internalType":"uint256"},{"name":"startTime","type":"uint256","internalType":"uint256"},{"name":"durationDays","type":"uint256","internalType":"uint256"},{"name":"status","type":"uint8","internalType":"enum LoanManager.LoanStatus"}]}],"stateMutability":"view"},{"type":"function","name":"getTotalDue","inputs":[{"name":"loanId","type":"uint256","internalType":"uint256"}],"outputs":[{"name":"","type":"uint256","internalType":"uint256"}],"stateMutability":"view"},{"type":"function","name":"isExpired","inputs":[{"name":"loanId","type":"uint256","internalType":"uint256"}],"outputs":[{"name":"","type":"bool","internalType":"bool"}],"stateMutability":"view"},{"type":"function","name":"lenderLoans","inputs":[{"name":"","type":"address","internalType":"address"},{"name":"","type":"uint256","internalType":"uint256"}],"outputs":[{"name":"","type":"uint256","internalType":"uint256"}],"stateMutability":"view"},{"type":"function","name":"lendingPool","inputs":[],"outputs":[{"name":"","type":"address","internalType":"contract LendingPool"}],"stateMutability":"view"},{"type":"function","name":"liquidationAuction","inputs":[],"outputs":[{"name":"","type":"address","internalType":"contract LiquidationAuction"}],"stateMutability":"view"},{"type":"function","name":"loanCount","inputs":[],"outputs":[{"name":"","type":"uint256","internalType":"uint256"}],"stateMutability":"view"},{"type":"function","name":"loans","inputs":[{"name":"","type":"uint256","internalType":"uint256"}],"outputs":[{"name":"borrower","type":"address","internalType":"address"},{"name":"lender","type":"address","internalType":"address"},{"name":"escrowId","type":"bytes32","internalType":"bytes32"},{"name":"offerId","type":"uint256","internalType":"uint256"},{"name":"principal","type":"uint256","internalType":"uint256"},{"name":"interestRateBps","type":"uint256","internalType":"uint256"},{"name":"startTime","type":"uint256","internalType":"uint256"},{"name":"durationDays","type":"uint256","internalType":"uint256"},{"name":"status","type":"uint8","internalType":"enum LoanManager.LoanStatus"}],"stateMutability":"view"},{"type":"function","name":"nftEscrow","inputs":[],"outputs":[{"name":"","type":"address","internalType":"contract NFTEscrow"}],"stateMutability":"view"},{"type":"function","name":"owner","inputs":[],"outputs":[{"name":"","type":"address","internalType":"address"}],"stateMutability":"view"},{"type":"function","name":"renounceOwnership","inputs":[],"outputs":[],"stateMutability":"nonpayable"},{"type":"function","name":"repayLoan","inputs":[{"name":"loanId","type":"uint256","internalType":"uint256"}],"outputs":[],"stateMutability":"payable"},{"type":"function","name":"takeLoan","inputs":[{"name":"escrowId","type":"bytes32","internalType":"bytes32"},{"name":"offerId","type":"uint256","internalType":"uint256"}],"outputs":[{"name":"loanId","type":"uint256","internalType":"uint256"}],"stateMutability":"nonpayable"},{"type":"function","name":"transferOwnership","inputs":[{"name":"newOwner","type":"address","internalType":"address"}],"outputs":[],"stateMutability":"nonpayable"},{"type":"function","name":"triggerDefault","inputs":[{"name":"loanId","type":"uint256","internalType":"uint256"}],"outputs":[],"stateMutability":"nonpayable"},{"type":"event","name":"LoanCreated","inputs":[{"name":"loanId","type":"uint256","indexed":true,"internalType":"uint256"},{"name":"borrower","type":"address","indexed":false,"internalType":"address"},{"name":"lender","type":"address","indexed":false,"internalType":"address"},{"name":"principal","type":"uint256","indexed":false,"internalType":"uint256"}],"anonymous":false},{"type":"event","name":"LoanDefaulted","inputs":[{"name":"loanId","type":"uint256","indexed":true,"internalType":"uint256"}],"anonymous":false},{"type":"event","name":"LoanLiquidated","inputs":[{"name":"loanId","type":"uint256","indexed":true,"internalType":"uint256"}],"anonymous":false},{"type":"event","name":"LoanRepaid","inputs":[{"name":"loanId","type":"uint256","indexed":true,"internalType":"uint256"},{"name":"totalRepaid","type":"uint256","indexed":false,"internalType":"uint256"}],"anonymous":false},{"type":"event","name":"OwnershipTransferred","inputs":[{"name":"previousOwner","type":"address","indexed":true,"internalType":"address"},{"name":"newOwner","type":"address","indexed":true,"internalType":"address"}],"anonymous":false},{"type":"error","name":"OwnableInvalidOwner","inputs":[{"name":"owner","type":"address","internalType":"address"}]},{"type":"error","name":"OwnableUnauthorizedAccount","inputs":[{"name":"account","type":"address","internalType":"address"}]},{"type":"error","name":"ReentrancyGuardReentrantCall","inputs":[]}],"bytecode":{"object":"0x608060405234801562000010575f80fd5b5060405162002d8e38038062002d8e833981810160405281019062000036919062000305565b335f73ffffffffffffffffffffffffffffffffffffffff168173ffffffffffffffffffffffffffffffffffffffff1603620000aa575f6040517f1e4fbdf7000000000000000000000000000000000000000000000000000000008152600401620000a191906200036f565b60405180910390fd5b620000bb81620001ad60201b60201c565b506001620000de620000d26200026e60201b60201c565b6200029760201b60201c565b5f01819055508260015f6101000a81548173ffffffffffffffffffffffffffffffffffffffff021916908373ffffffffffffffffffffffffffffffffffffffff1602179055508160025f6101000a81548173ffffffffffffffffffffffffffffffffffffffff021916908373ffffffffffffffffffffffffffffffffffffffff1602179055508060035f6101000a81548173ffffffffffffffffffffffffffffffffffffffff021916908373ffffffffffffffffffffffffffffffffffffffff1602179055505050506200038a565b5f805f9054906101000a900473ffffffffffffffffffffffffffffffffffffffff169050815f806101000a81548173ffffffffffffffffffffffffffffffffffffffff021916908373ffffffffffffffffffffffffffffffffffffffff1602179055508173ffffffffffffffffffffffffffffffffffffffff168173ffffffffffffffffffffffffffffffffffffffff167f8be0079c531659141344cd1fd0a4f28419497f9722a3daafe3b4186f6b6457e060405160405180910390a35050565b5f7f9b779b17422d0df92223018b32b4d1fa46e071723d6817e2486d003becc55f005f1b905090565b5f819050919050565b5f80fd5b5f73ffffffffffffffffffffffffffffffffffffffff82169050919050565b5f620002cf82620002a4565b9050919050565b620002e181620002c3565b8114620002ec575f80fd5b50565b5f81519050620002ff81620002d6565b92915050565b5f805f606084860312156200031f576200031e620002a0565b5b5f6200032e86828701620002ef565b93505060206200034186828701620002ef565b92505060406200035486828701620002ef565b9150509250925092565b6200036981620002c3565b82525050565b5f602082019050620003845f8301846200035e565b92915050565b6129f680620003985f395ff3fe608060405260043610610113575f3560e01c8063ab7b1c891161009f578063eee8b7ff11610063578063eee8b7ff146103c5578063eeeb0c1714610401578063f2fde38b1461043d578063fa1b751c14610465578063fa2da48c1461048d57610113565b8063ab7b1c89146102c3578063ce63094d146102df578063d9548e5314610309578063e1ec3c6814610345578063e3ed19021461038957610113565b806363825392116100e657806363825392146101f5578063715018a61461021d57806377ce1697146102335780638da5cb5b1461026f578063a59a99731461029957610113565b80633cdb72f1146101175780634f4cf42814610153578063504006ca1461018f57806362b5bdf8146101cb575b5f80fd5b348015610122575f80fd5b5061013d60048036038101906101389190611c47565b6104b7565b60405161014a9190611c94565b60405180910390f35b34801561015e575f80fd5b5061017960048036038101906101749190611cad565b6104e2565b6040516101869190611c94565b60405180910390f35b34801561019a575f80fd5b506101b560048036038101906101b09190611cad565b610681565b6040516101c29190611e36565b60405180910390f35b3480156101d6575f80fd5b506101df6107cc565b6040516101ec9190611eab565b60405180910390f35b348015610200575f80fd5b5061021b60048036038101906102169190611cad565b6107f1565b005b348015610228575f80fd5b506102316109fc565b005b34801561023e575f80fd5b5061025960048036038101906102549190611eee565b610a0f565b6040516102669190611c94565b60405180910390f35b34801561027a575f80fd5b50610283611035565b6040516102909190611f3b565b60405180910390f35b3480156102a4575f80fd5b506102ad61105c565b6040516102ba9190611f74565b60405180910390f35b6102dd60048036038101906102d89190611cad565b611081565b005b3480156102ea575f80fd5b506102f3611418565b6040516103009190611c94565b60405180910390f35b348015610314575f80fd5b5061032f600480360381019061032a9190611cad565b61141e565b60405161033c9190611fa7565b60405180910390f35b348015610350575f80fd5b5061036b60048036038101906103669190611cad565b61158a565b60405161038099989796959493929190611fde565b60405180910390f35b348015610394575f80fd5b506103af60048036038101906103aa9190611c47565b61161e565b6040516103bc9190611c94565b60405180910390f35b3480156103d0575f80fd5b506103eb60048036038101906103e69190612069565b611649565b6040516103f8919061213c565b60405180910390f35b34801561040c575f80fd5b5061042760048036038101906104229190612069565b6116dc565b604051610434919061213c565b60405180910390f35b348015610448575f80fd5b50610463600480360381019061045e9190612069565b61176f565b005b348015610470575f80fd5b5061048b60048036038101906104869190611cad565b6117f3565b005b348015610498575f80fd5b506104a16118ea565b6040516104ae919061217c565b60405180910390f35b6007602052815f5260405f2081815481106104d0575f80fd5b905f5260205f20015f91509150505481565b5f8060055f8481526020019081526020015f20604051806101200160405290815f82015f9054906101000a900473ffffffffffffffffffffffffffffffffffffffff1673ffffffffffffffffffffffffffffffffffffffff1673ffffffffffffffffffffffffffffffffffffffff168152602001600182015f9054906101000a900473ffffffffffffffffffffffffffffffffffffffff1673ffffffffffffffffffffffffffffffffffffffff1673ffffffffffffffffffffffffffffffffffffffff168152602001600282015481526020016003820154815260200160048201548152602001600582015481526020016006820154815260200160078201548152602001600882015f9054906101000a900460ff16600381111561060a57610609611d0e565b5b600381111561061c5761061b611d0e565b5b8152505090505f8160c001514261063391906121c2565b90505f64496cebb800828460a00151856080015161065191906121f5565b61065b91906121f5565b6106659190612263565b90508083608001516106779190612293565b9350505050919050565b610689611b29565b60055f8381526020019081526020015f20604051806101200160405290815f82015f9054906101000a900473ffffffffffffffffffffffffffffffffffffffff1673ffffffffffffffffffffffffffffffffffffffff1673ffffffffffffffffffffffffffffffffffffffff168152602001600182015f9054906101000a900473ffffffffffffffffffffffffffffffffffffffff1673ffffffffffffffffffffffffffffffffffffffff1673ffffffffffffffffffffffffffffffffffffffff168152602001600282015481526020016003820154815260200160048201548152602001600582015481526020016006820154815260200160078201548152602001600882015f9054906101000a900460ff1660038111156107af576107ae611d0e565b5b60038111156107c1576107c0611d0e565b5b815250509050919050565b60015f9054906101000a900473ffffffffffffffffffffffffffffffffffffffff1681565b6107f961190f565b5f60055f8381526020019081526020015f2090505f60038111156108205761081f611d0e565b5b816008015f9054906101000a900460ff16600381111561084357610842611d0e565b5b14610883576040517f08c379a000000000000000000000000000000000000000000000000000000000815260040161087a90612320565b60405180910390fd5b61088c8261141e565b6108cb576040517f08c379a00000000000000000000000000000000000000000000000000000000081526004016108c290612388565b60405180910390fd5b6003816008015f6101000a81548160ff021916908360038111156108f2576108f1611d0e565b5b021790555060035f9054906101000a900473ffffffffffffffffffffffffffffffffffffffff1673ffffffffffffffffffffffffffffffffffffffff1663e770328e838360020154846001015f9054906101000a900473ffffffffffffffffffffffffffffffffffffffff1685600401546040518563ffffffff1660e01b815260040161098294939291906123a6565b6020604051808303815f875af115801561099e573d5f803e3d5ffd5b505050506040513d601f19601f820116820180604052508101906109c291906123fd565b50817f0789b7097e8066538cfaa1132488b132e14ba5f0c938c8b7aaf8cf40356aab0b60405160405180910390a2506109f9611931565b50565b610a0461194b565b610a0d5f6119d2565b565b5f610a1861190f565b5f60015f9054906101000a900473ffffffffffffffffffffffffffffffffffffffff1673ffffffffffffffffffffffffffffffffffffffff1663f023b811856040518263ffffffff1660e01b8152600401610a739190612428565b608060405180830381865afa158015610a8e573d5f803e3d5ffd5b505050506040513d601f19601f82011682018060405250810190610ab29190612580565b90503373ffffffffffffffffffffffffffffffffffffffff16815f015173ffffffffffffffffffffffffffffffffffffffff1614610b25576040517f08c379a0000000000000000000000000000000000000000000000000000000008152600401610b1c906125f5565b60405180910390fd5b806060015115610b6a576040517f08c379a0000000000000000000000000000000000000000000000000000000008152600401610b619061265d565b60405180910390fd5b5f60025f9054906101000a900473ffffffffffffffffffffffffffffffffffffffff1673ffffffffffffffffffffffffffffffffffffffff16634579268a856040518263ffffffff1660e01b8152600401610bc59190611c94565b60a060405180830381865afa158015610be0573d5f803e3d5ffd5b505050506040513d601f19601f82011682018060405250810190610c049190612704565b90508060800151610c4a576040517f08c379a0000000000000000000000000000000000000000000000000000000008152600401610c4190612779565b60405180910390fd5b60015f9054906101000a900473ffffffffffffffffffffffffffffffffffffffff1673ffffffffffffffffffffffffffffffffffffffff1663d7fd2ee2866040518263ffffffff1660e01b8152600401610ca49190612428565b5f604051808303815f87803b158015610cbb575f80fd5b505af1158015610ccd573d5f803e3d5ffd5b5050505060025f9054906101000a900473ffffffffffffffffffffffffffffffffffffffff1673ffffffffffffffffffffffffffffffffffffffff1663bfa7b23185336040518363ffffffff1660e01b8152600401610d2d929190612797565b6020604051808303815f875af1158015610d49573d5f803e3d5ffd5b505050506040513d601f19601f82011682018060405250810190610d6d91906123fd565b5060045f815480929190610d80906127be565b9190505592506040518061012001604052803373ffffffffffffffffffffffffffffffffffffffff168152602001825f015173ffffffffffffffffffffffffffffffffffffffff1681526020018681526020018581526020018260200151815260200182604001518152602001428152602001826060015181526020015f6003811115610e1057610e0f611d0e565b5b81525060055f8581526020019081526020015f205f820151815f015f6101000a81548173ffffffffffffffffffffffffffffffffffffffff021916908373ffffffffffffffffffffffffffffffffffffffff1602179055506020820151816001015f6101000a81548173ffffffffffffffffffffffffffffffffffffffff021916908373ffffffffffffffffffffffffffffffffffffffff16021790555060408201518160020155606082015181600301556080820151816004015560a0820151816005015560c0820151816006015560e08201518160070155610100820151816008015f6101000a81548160ff02191690836003811115610f1557610f14611d0e565b5b021790555090505060065f3373ffffffffffffffffffffffffffffffffffffffff1673ffffffffffffffffffffffffffffffffffffffff1681526020019081526020015f2083908060018154018082558091505060019003905f5260205f20015f909190919091505560075f825f015173ffffffffffffffffffffffffffffffffffffffff1673ffffffffffffffffffffffffffffffffffffffff1681526020019081526020015f2083908060018154018082558091505060019003905f5260205f20015f9091909190915055827f74b3e97b2a36ecfc8a1c59a0f98862174d98f86769a3420cf68024a054f87b6d33835f0151846020015160405161101d93929190612805565b60405180910390a2505061102f611931565b92915050565b5f805f9054906101000a900473ffffffffffffffffffffffffffffffffffffffff16905090565b60025f9054906101000a900473ffffffffffffffffffffffffffffffffffffffff1681565b61108961190f565b5f60055f8381526020019081526020015f2090503373ffffffffffffffffffffffffffffffffffffffff16815f015f9054906101000a900473ffffffffffffffffffffffffffffffffffffffff1673ffffffffffffffffffffffffffffffffffffffff161461112d576040517f08c379a000000000000000000000000000000000000000000000000000000000815260040161112490612884565b60405180910390fd5b5f60038111156111405761113f611d0e565b5b816008015f9054906101000a900460ff16600381111561116357611162611d0e565b5b146111a3576040517f08c379a000000000000000000000000000000000000000000000000000000000815260040161119a90612320565b60405180910390fd5b5f6111ad836104e2565b9050803410156111f2576040517f08c379a00000000000000000000000000000000000000000000000000000000081526004016111e9906128ec565b60405180910390fd5b6001826008015f6101000a81548160ff0219169083600381111561121957611218611d0e565b5b021790555060015f9054906101000a900473ffffffffffffffffffffffffffffffffffffffff1673ffffffffffffffffffffffffffffffffffffffff1663738449408360020154845f015f9054906101000a900473ffffffffffffffffffffffffffffffffffffffff166040518363ffffffff1660e01b81526004016112a092919061290a565b5f604051808303815f87803b1580156112b7575f80fd5b505af11580156112c9573d5f803e3d5ffd5b5050505060025f9054906101000a900473ffffffffffffffffffffffffffffffffffffffff1673ffffffffffffffffffffffffffffffffffffffff1663b3b5ae2e82846001015f9054906101000a900473ffffffffffffffffffffffffffffffffffffffff16846040518463ffffffff1660e01b815260040161134d929190612931565b5f604051808303818588803b158015611364575f80fd5b505af1158015611376573d5f803e3d5ffd5b5050505050803411156113d3573373ffffffffffffffffffffffffffffffffffffffff166108fc82346113a991906121c2565b90811502906040515f60405180830381858888f193505050501580156113d1573d5f803e3d5ffd5b505b827f040cee90ee4799897c30ca04e5feb6fa43dbba9b6d084b4b257cdafd84ba013e826040516114039190611c94565b60405180910390a25050611415611931565b50565b60045481565b5f8060055f8481526020019081526020015f20604051806101200160405290815f82015f9054906101000a900473ffffffffffffffffffffffffffffffffffffffff1673ffffffffffffffffffffffffffffffffffffffff1673ffffffffffffffffffffffffffffffffffffffff168152602001600182015f9054906101000a900473ffffffffffffffffffffffffffffffffffffffff1673ffffffffffffffffffffffffffffffffffffffff1673ffffffffffffffffffffffffffffffffffffffff168152602001600282015481526020016003820154815260200160048201548152602001600582015481526020016006820154815260200160078201548152602001600882015f9054906101000a900460ff16600381111561154657611545611d0e565b5b600381111561155857611557611d0e565b5b815250509050620151808160e0015161157191906121f5565b8160c001516115809190612293565b4211915050919050565b6005602052805f5260405f205f91509050805f015f9054906101000a900473ffffffffffffffffffffffffffffffffffffffff1690806001015f9054906101000a900473ffffffffffffffffffffffffffffffffffffffff1690806002015490806003015490806004015490806005015490806006015490806007015490806008015f9054906101000a900460ff16905089565b6006602052815f5260405f208181548110611637575f80fd5b905f5260205f20015f91509150505481565b606060065f8373ffffffffffffffffffffffffffffffffffffffff1673ffffffffffffffffffffffffffffffffffffffff1681526020019081526020015f208054806020026020016040519081016040528092919081815260200182805480156116d057602002820191905f5260205f20905b8154815260200190600101908083116116bc575b50505050509050919050565b606060075f8373ffffffffffffffffffffffffffffffffffffffff1673ffffffffffffffffffffffffffffffffffffffff1681526020019081526020015f2080548060200260200160405190810160405280929190818152602001828054801561176357602002820191905f5260205f20905b81548152602001906001019080831161174f575b50505050509050919050565b61177761194b565b5f73ffffffffffffffffffffffffffffffffffffffff168173ffffffffffffffffffffffffffffffffffffffff16036117e7575f6040517f1e4fbdf70000000000000000000000000000000000000000000000000000000081526004016117de9190611f3b565b60405180910390fd5b6117f0816119d2565b50565b6117fb61190f565b5f60055f8381526020019081526020015f20905060038081111561182257611821611d0e565b5b816008015f9054906101000a900460ff16600381111561184557611844611d0e565b5b14611885576040517f08c379a000000000000000000000000000000000000000000000000000000000815260040161187c906129a2565b60405180910390fd5b6002816008015f6101000a81548160ff021916908360038111156118ac576118ab611d0e565b5b0217905550817faf91ffe368225045d42f7c2b4b90feb438133ac1e375e73bc9066652b70a1d7760405160405180910390a2506118e7611931565b50565b60035f9054906101000a900473ffffffffffffffffffffffffffffffffffffffff1681565b611917611a93565b6002611929611924611ad4565b611afd565b5f0181905550565b600161194361193e611ad4565b611afd565b5f0181905550565b611953611b06565b73ffffffffffffffffffffffffffffffffffffffff16611971611035565b73ffffffffffffffffffffffffffffffffffffffff16146119d057611994611b06565b6040517f118cdaa70000000000000000000000000000000000000000000000000000000081526004016119c79190611f3b565b60405180910390fd5b565b5f805f9054906101000a900473ffffffffffffffffffffffffffffffffffffffff169050815f806101000a81548173ffffffffffffffffffffffffffffffffffffffff021916908373ffffffffffffffffffffffffffffffffffffffff1602179055508173ffffffffffffffffffffffffffffffffffffffff168173ffffffffffffffffffffffffffffffffffffffff167f8be0079c531659141344cd1fd0a4f28419497f9722a3daafe3b4186f6b6457e060405160405180910390a35050565b611a9b611b0d565b15611ad2576040517f3ee5aeb500000000000000000000000000000000000000000000000000000000815260040160405180910390fd5b565b5f7f9b779b17422d0df92223018b32b4d1fa46e071723d6817e2486d003becc55f005f1b905090565b5f819050919050565b5f33905090565b5f6002611b20611b1b611ad4565b611afd565b5f015414905090565b6040518061012001604052805f73ffffffffffffffffffffffffffffffffffffffff1681526020015f73ffffffffffffffffffffffffffffffffffffffff1681526020015f80191681526020015f81526020015f81526020015f81526020015f81526020015f81526020015f6003811115611ba757611ba6611d0e565b5b81525090565b5f604051905090565b5f80fd5b5f73ffffffffffffffffffffffffffffffffffffffff82169050919050565b5f611be382611bba565b9050919050565b611bf381611bd9565b8114611bfd575f80fd5b50565b5f81359050611c0e81611bea565b92915050565b5f819050919050565b611c2681611c14565b8114611c30575f80fd5b50565b5f81359050611c4181611c1d565b92915050565b5f8060408385031215611c5d57611c5c611bb6565b5b5f611c6a85828601611c00565b9250506020611c7b85828601611c33565b9150509250929050565b611c8e81611c14565b82525050565b5f602082019050611ca75f830184611c85565b92915050565b5f60208284031215611cc257611cc1611bb6565b5b5f611ccf84828501611c33565b91505092915050565b611ce181611bd9565b82525050565b5f819050919050565b611cf981611ce7565b82525050565b611d0881611c14565b82525050565b7f4e487b71000000000000000000000000000000000000000000000000000000005f52602160045260245ffd5b60048110611d4c57611d4b611d0e565b5b50565b5f819050611d5c82611d3b565b919050565b5f611d6b82611d4f565b9050919050565b611d7b81611d61565b82525050565b61012082015f820151611d965f850182611cd8565b506020820151611da96020850182611cd8565b506040820151611dbc6040850182611cf0565b506060820151611dcf6060850182611cff565b506080820151611de26080850182611cff565b5060a0820151611df560a0850182611cff565b5060c0820151611e0860c0850182611cff565b5060e0820151611e1b60e0850182611cff565b50610100820151611e30610100850182611d72565b50505050565b5f61012082019050611e4a5f830184611d81565b92915050565b5f819050919050565b5f611e73611e6e611e6984611bba565b611e50565b611bba565b9050919050565b5f611e8482611e59565b9050919050565b5f611e9582611e7a565b9050919050565b611ea581611e8b565b82525050565b5f602082019050611ebe5f830184611e9c565b92915050565b611ecd81611ce7565b8114611ed7575f80fd5b50565b5f81359050611ee881611ec4565b92915050565b5f8060408385031215611f0457611f03611bb6565b5b5f611f1185828601611eda565b9250506020611f2285828601611c33565b9150509250929050565b611f3581611bd9565b82525050565b5f602082019050611f4e5f830184611f2c565b92915050565b5f611f5e82611e7a565b9050919050565b611f6e81611f54565b82525050565b5f602082019050611f875f830184611f65565b92915050565b5f8115159050919050565b611fa181611f8d565b82525050565b5f602082019050611fba5f830184611f98565b92915050565b611fc981611ce7565b82525050565b611fd881611d61565b82525050565b5f61012082019050611ff25f83018c611f2c565b611fff602083018b611f2c565b61200c604083018a611fc0565b6120196060830189611c85565b6120266080830188611c85565b61203360a0830187611c85565b61204060c0830186611c85565b61204d60e0830185611c85565b61205b610100830184611fcf565b9a9950505050505050505050565b5f6020828403121561207e5761207d611bb6565b5b5f61208b84828501611c00565b91505092915050565b5f81519050919050565b5f82825260208201905092915050565b5f819050602082019050919050565b5f6120c88383611cff565b60208301905092915050565b5f602082019050919050565b5f6120ea82612094565b6120f4818561209e565b93506120ff836120ae565b805f5b8381101561212f57815161211688826120bd565b9750612121836120d4565b925050600181019050612102565b5085935050505092915050565b5f6020820190508181035f83015261215481846120e0565b905092915050565b5f61216682611e7a565b9050919050565b6121768161215c565b82525050565b5f60208201905061218f5f83018461216d565b92915050565b7f4e487b71000000000000000000000000000000000000000000000000000000005f52601160045260245ffd5b5f6121cc82611c14565b91506121d783611c14565b92508282039050818111156121ef576121ee612195565b5b92915050565b5f6121ff82611c14565b915061220a83611c14565b925082820261221881611c14565b9150828204841483151761222f5761222e612195565b5b5092915050565b7f4e487b71000000000000000000000000000000000000000000000000000000005f52601260045260245ffd5b5f61226d82611c14565b915061227883611c14565b92508261228857612287612236565b5b828204905092915050565b5f61229d82611c14565b91506122a883611c14565b92508282019050808211156122c0576122bf612195565b5b92915050565b5f82825260208201905092915050565b7f4c6f616e206e6f742061637469766500000000000000000000000000000000005f82015250565b5f61230a600f836122c6565b9150612315826122d6565b602082019050919050565b5f6020820190508181035f830152612337816122fe565b9050919050565b7f4c6f616e206861736e27742065787069726564207965740000000000000000005f82015250565b5f6123726017836122c6565b915061237d8261233e565b602082019050919050565b5f6020820190508181035f83015261239f81612366565b9050919050565b5f6080820190506123b95f830187611c85565b6123c66020830186611fc0565b6123d36040830185611f2c565b6123e06060830184611c85565b95945050505050565b5f815190506123f781611c1d565b92915050565b5f6020828403121561241257612411611bb6565b5b5f61241f848285016123e9565b91505092915050565b5f60208201905061243b5f830184611fc0565b92915050565b5f80fd5b5f601f19601f8301169050919050565b7f4e487b71000000000000000000000000000000000000000000000000000000005f52604160045260245ffd5b61248b82612445565b810181811067ffffffffffffffff821117156124aa576124a9612455565b5b80604052505050565b5f6124bc611bad565b90506124c88282612482565b919050565b5f815190506124db81611bea565b92915050565b6124ea81611f8d565b81146124f4575f80fd5b50565b5f81519050612505816124e1565b92915050565b5f608082840312156125205761251f612441565b5b61252a60806124b3565b90505f612539848285016124cd565b5f83015250602061254c848285016124cd565b6020830152506040612560848285016123e9565b6040830152506060612574848285016124f7565b60608301525092915050565b5f6080828403121561259557612594611bb6565b5b5f6125a28482850161250b565b91505092915050565b7f4e6f7420796f7572204e465400000000000000000000000000000000000000005f82015250565b5f6125df600c836122c6565b91506125ea826125ab565b602082019050919050565b5f6020820190508181035f83015261260c816125d3565b9050919050565b7f4e465420616c726561647920696e2075736500000000000000000000000000005f82015250565b5f6126476012836122c6565b915061265282612613565b602082019050919050565b5f6020820190508181035f8301526126748161263b565b9050919050565b5f60a082840312156126905761268f612441565b5b61269a60a06124b3565b90505f6126a9848285016124cd565b5f8301525060206126bc848285016123e9565b60208301525060406126d0848285016123e9565b60408301525060606126e4848285016123e9565b60608301525060806126f8848285016124f7565b60808301525092915050565b5f60a0828403121561271957612718611bb6565b5b5f6127268482850161267b565b91505092915050565b7f4f66666572206e6f206c6f6e67657220617661696c61626c65000000000000005f82015250565b5f6127636019836122c6565b915061276e8261272f565b602082019050919050565b5f6020820190508181035f83015261279081612757565b9050919050565b5f6040820190506127aa5f830185611c85565b6127b76020830184611f2c565b9392505050565b5f6127c882611c14565b91507fffffffffffffffffffffffffffffffffffffffffffffffffffffffffffffffff82036127fa576127f9612195565b5b600182019050919050565b5f6060820190506128185f830186611f2c565b6128256020830185611f2c565b6128326040830184611c85565b949350505050565b7f4e6f7420626f72726f77657200000000000000000000000000000000000000005f82015250565b5f61286e600c836122c6565b91506128798261283a565b602082019050919050565b5f6020820190508181035f83015261289b81612862565b9050919050565b7f4e6f7420656e6f75676820746f20636f7665722072657061796d656e740000005f82015250565b5f6128d6601d836122c6565b91506128e1826128a2565b602082019050919050565b5f6020820190508181035f830152612903816128ca565b9050919050565b5f60408201905061291d5f830185611fc0565b61292a6020830184611f2c565b9392505050565b5f6040820190506129445f830185611f2c565b6129516020830184611c85565b9392505050565b7f4e6f7420696e2064656661756c740000000000000000000000000000000000005f82015250565b5f61298c600e836122c6565b915061299782612958565b602082019050919050565b5f6020820190508181035f8301526129b981612980565b905091905056fea2646970667358221220d20727cf2215bd052703a9554c7196e07cacc3529262af8322cada2213f0725e64736f6c63430008140033","linkReferences":{}},"methodIdentifiers":{"borrowerLoans(address,uint256)":"e3ed1902","completeLiquidation(uint256)":"fa1b751c","getBorrowerLoans(address)":"eee8b7ff","getLenderLoans(address)":"eeeb0c17","getLoan(uint256)":"504006ca","getTotalDue(uint256)":"4f4cf428","isExpired(uint256)":"d9548e53","lenderLoans(address,uint256)":"3cdb72f1","lendingPool()":"a59a9973","liquidationAuction()":"fa2da48c","loanCount()":"ce63094d","loans(uint256)":"e1ec3c68","nftEscrow()":"62b5bdf8","owner()":"8da5cb5b","renounceOwnership()":"715018a6","repayLoan(uint256)":"ab7b1c89","takeLoan(bytes32,uint256)":"77ce1697","transferOwnership(address)":"f2fde38b","triggerDefault(uint256)":"63825392"},"id":26}